:100000000C947B000C94140F0C94410F0C94A300DF
:100010000C94A3000C94A3000C94A3000C94A500D2
:100020000C94A3000C94A3000C94A3000C94A300C4
:100030000C94A3000C940A0E0C94A3000C94A3003F
:100040000C946E0F0C94A3000C947C120C94AE12C2
:100050000C94A3000C94A3000C94A3000C94A30094
:100060000C94A3000C94A300535455434B205245C9
:100070004C415921200A554E504C554720260A43E1
:100080006F6E746163742075730A45786974696E64
:10009000672E2E2E0000000008000201000003045D
:1000A00007000000000000000001020408102040CA
:1000B0008001020408102001020408102004040436
:1000C0000404040404020202020202030303030301
:1000D0000300000000230026002900000000002586
:1000E0000028002B0000000000240027002A000048
:1000F000ED09DE12F30911241FBECFEFD8E0DEBFF9
:10010000CDBF12E0A0E0B1E0EAE5FBE302C005905C
:100110000D92AC30B107D9F723E0ACE0B2E001C0FA
:100120001D92AA3FB207E1F710E0C4EFD0E004C08F
:100130002297FE010E941718C03FD107C9F70E94FD
:1001400022130C94A01D0C9400001F920F920FB666
:100150000F9211242F933F938F939F93AF93BF934D
:1001600080910E0290910F02019690930F0280935E
:100170000E0220910C0230910D022F5F3F4F309301
:100180000D0220930C0280349F41C1F410920F02A3
:1001900010920E028091130290911402A091150208
:1001A000B09116020196A11DB11D80931302909388
:1001B0001402A0931502B0931602A895BF91AF91B7
:1001C0009F918F913F912F910F900FBE0F901F9095
:1001D000189510922C0260E087E00E94D61064E629
:1001E00070E080E090E00E94E70F61E087E00C940F
:1001F000D610682F85E00C94D61090937A028093E5
:100200007902AC0169E087E493E00C949B0E0F93B4
:100210001F930E94B80F00911F021091200220919D
:10022000210230912202061717072807390798F490
:100230000E94B80F00911F0210912002209121020C
:1002400030912202601B710B820B930B6436710597
:1002500081059105C0F01AE080ED97E00E940F1033
:1002600083E00E940C11019761F481E080932C02DD
:1002700080E094E00E94FD0080E01F910F910C94BB
:10028000F900115049F71F910F910895CF92DF9215
:10029000EF92FF9220E030E040EF52E4609175026F
:1002A0007091760280917702909178020E94C51534
:1002B000811103C06091D10206C0609110016F3FAF
:1002C00021F46091D002662369F070E080E090E054
:1002D0000E946216609311017093120180931301C2
:1002E00090931401C0901101D0901201E09013017D
:1002F000F090140120E030E04CE452E4C701B60174
:100300000E94C51587FF0FC020E030E040E854E4AC
:10031000C701B6010E94181720E030E040E752E420
:100320000E94C91514C020E030E04AE753E4C70139
:10033000B6010E94C9152AE037ED43E25FE30E944F
:10034000611520E030E040E854E40E9418170E9454
:10035000361670937C0260937B0280917B029091B1
:100360007C028B3C934030F08AEC93E090937C02CB
:1003700080937B02FF90EF90DF90CF900895CF9213
:10038000DF92EF92FF92CF93DF9364E670E080E01C
:1003900090E00E94E70F80E00E945710EC0184EC8F
:1003A00099E00E940F1080E00E9457108C0F9D1F53
:1003B000BC01882777FD8095982F0E94641620E065
:1003C00030E040EA50E40E94181720E030E040E8B6
:1003D0005AE30E94181720E030E040E05FE30E94FB
:1003E00018176B017C019B01AC010E94611520E094
:1003F00030E040EA50E40E9460152BE739E04DE61A
:1004000050E40E941817A70196010E94611560939D
:10041000B1027093B2028093B3029093B402DF9161
:10042000CF91FF90EF90DF90CF9008954F925F9221
:100430006F927F928F929F92AF92BF92CF92DF92F4
:10044000EF92FF92A0907902B0907A020E94BF01D1
:100450006B017C01A11484E0B80691F14090150174
:1004600050901601609017017090180160917B0206
:1004700070917C0280E090E00E9462164B015C016A
:10048000A3019201C701B6010E94601520E030E08F
:1004900040E854E40E9418176B017C01A501940107
:1004A000C301B2010E9418179B01AC01C701B6013C
:1004B0000E946115A50194010E94C9156B017C0180
:1004C0002091A9023091AA024091AB025091AC0256
:1004D000C701B6010E94141718167CF42091A502DA
:1004E0003091A6024091A7025091A802C701B6011F
:1004F0000E94C51518160CF092C02091A1023091EF
:10050000A2024091A3025091A402C701B6010E9429
:10051000141718167CF420919D0230919E02409190
:100520009F025091A002C701B6010E94C51518167E
:100530000CF078C02091990230919A0240919B0270
:1005400050919C02C701B6010E94141718167CF442
:100550002091950230919602409197025091980215
:10056000C701B6010E94C51518160CF05EC0209197
:100570009102309192024091930250919402C701EE
:10058000B6010E94141718167CF420918D02309148
:100590008E0240918F0250919002C701B6010E94D5
:1005A000C51518160CF044C02091890230918A02BA
:1005B00040918B0250918C02C701B6010E94141722
:1005C000181674F4209185023091860240918702BA
:1005D00050918802C701B6010E94C51518165CF536
:1005E00020918102309182024091830250918402D5
:1005F000C701B6010E941417181604F520917D0258
:1006000030917E0240917F0250918002C701B60175
:100610000E94C515181694F085E090E011C080E0A6
:1006200090E00EC081E090E00BC082E090E008C056
:1006300083E090E005C084E090E002C08FEF90E09E
:10064000FF90EF90DF90CF90BF90AF909F908F90F2
:100650007F906F905F904F900895CF92DF92EF92CE
:10066000FF9281E00E945710BC01882777FD80959A
:10067000982F0E94641620E030E040EA50E40E9487
:10068000181720E030E040E85AE30E9418176B0189
:100690007C0168E070E080E090E00E94E70F81E07C
:1006A0000E945710BC01882777FD8095982F0E94E3
:1006B000641620E030E040EA50E40E94181720E081
:1006C00030E040E85AE30E9418179B01AC01C701D3
:1006D000B6010E94611520E030E040E05FE30E9437
:1006E00018172091AD023091AE024091AF025091A7
:1006F000B0020E94601520E030E04CE453E40E9418
:1007000018176B017C0120E030E044E253E40E94C2
:10071000C51587FD0FC020E030E04CE553E4C7016C
:10072000B6010E94C51587FF0AC060E070E080E551
:1007300093E409C060E070E080EF92E404C060E000
:1007400070E080E793E4FF90EF90DF90CF90089502
:10075000CF92DF92EF92FF9282E00E9457107C01CD
:1007600068E070E080E090E00E94E70F82E00E9485
:1007700057108E0D9F1DBC01882777FD8095982FFF
:100780000E94641620E030E040EA50E40E9418170E
:1007900020E030E040E05FE30E94181720E030E006
:1007A00040E85AE30E9418176B017C012DEC3CECE9
:1007B0004CEC5DE30E94141718164CF420E030E076
:1007C00044E951E4C701B6010E94181703C060E074
:1007D00070E0CB01FF90EF90DF90CF900895CF9322
:1007E000DF9388EC80937C0080917A00806880930E
:1007F0007A0064E170E080E090E00E94E70F809171
:100800007A00806480937A0080917A0086FDFCCF24
:10081000C0917800D091790081E00E945410C454B6
:10082000D14020E52C9FC0012D9F900D112462E640
:1008300070E00E947B17CB01DF91CF9108950F9359
:100840001F93CF93DF938C0164E289E593E00E94CC
:1008500096136AE171E089E593E00E949413609138
:100860000E0170910F014AE050E089E593E00E948B
:1008700078146AE171E089E593E00E949413CCEB6F
:10088000D2E0699179914AE050E089E593E00E94D5
:100890008D1482E0C03DD807A1F76AE171E089E5D7
:1008A00093E00E949413B80189E593E00E949413A9
:1008B0006AE171E089E593E00E94941363E289E5BF
:1008C00093E0DF91CF911F910F910C94C3131F936D
:1008D000CF93DF93182F64E289E593E00E9496138B
:1008E0006AE171E089E593E00E9494134AE050E0E8
:1008F00069E070E089E593E00E9478146AE171E0B4
:1009000089E593E00E949413CCEBD2E06991799150
:100910004AE050E089E593E00E948D1482E0C03DFA
:10092000D807A1F76AE171E089E593E00E9494138A
:10093000612F89E593E00E9496136AE171E089E5F1
:1009400093E00E94941363E289E593E0DF91CF91F5
:100950001F910C94C3130F931F93CF93DF938C01BC
:1009600064E289E593E00E9496136AE171E089E50B
:1009700093E00E94941360910E0170910F014AE080
:1009800050E089E593E00E9478146AE171E089E51E
:1009900093E00E949413CCEBD2E0699179914AE004
:1009A00050E089E593E00E948D1482E0C03DD807B5
:1009B000A1F76AE171E089E593E00E949413B80120
:1009C00089E593E00E946F136AE171E089E593E0A5
:1009D0000E94941363E289E593E0DF91CF911F9128
:1009E0000F910C94C313FF920F931F93CF93DF9338
:1009F000F82E0E940C11EC018130910519F0C0E035
:100A0000D0E010C00AE010E08F2D0E940C11892B5D
:100A1000B1F365E070E080E090E00E94E70F0150E4
:100A2000110991F7CE01DF91CF911F910F91FF90A6
:100A300008950F931F936091130270911402809197
:100A40001502909116020091170210911802209140
:100A5000190230911A02601B710B820B930B20E874
:100A600031E541E050E00E948F17CA01B90127E04B
:100A700030E040E050E00E948F17862F1F910F91C9
:100A800008950F931F936091130270911402809147
:100A900015029091160200911702109118022091F0
:100AA000190230911A02601B710B820B930B20E12B
:100AB0003EE040E050E00E948F17CA01B90128E1F2
:100AC00030E040E050E00E948F17862F1F910F9179
:100AD0000895CF92DF92EF92FF926091130270918E
:100AE00014028091150290911602C0901702D090C6
:100AF0001802E0901902F0901A026C197D098E0913
:100B00009F092CE3C22ED12CE12CF12CA7019601D8
:100B10000E948F17CA01B901A70196010E948F1781
:100B2000862FFF90EF90DF90CF900895CF93DF93C3
:100B30000E941905D82F0E944105C82FE1E0D53049
:100B400008F4E0E0D43021F0D63021F0DE2F03C0ED
:100B5000D1E001C0D0E0F0E0EB54FD4F458DC4176B
:100B600050F450E04C1B51098CE3849F9001859F09
:100B7000300D11241FC0878DC817D0F00E94690561
:100B8000482FED2FF0E0EB54FD4F258D822F90E0A4
:100B90008C1B9109489668E170E00E947B175CE32A
:100BA000589F9001599F300D1124241B310902C018
:100BB0002FEF3FEFC901DF91CF9108950F931F935E
:100BC000CF93DF938C01C0E0D0E0C017D10744F48D
:100BD00068EE73E080E090E00E94E70F2196F5CF89
:100BE000DF91CF911F910F910895EF92FF920F9394
:100BF0001F93CF93DF93EC019B01FC010AE010E00F
:100C0000DE010D900020E9F71197AC1BBD0BCF0161
:100C10008C1B9D0B8A179B0708F040C0808190EDCC
:100C2000980F9A3070F181548A33B0F58091EE02BA
:100C300091E0980F9093EE027901E80EF11C80810B
:100C4000992787FD909580549109B8010E947B17E0
:100C5000605DD7016C938091EE0291E0980F9093C4
:100C6000EE027901E80EF11C8081992787FD9095AD
:100C700080549109B8010E947B17805DD7018C9345
:100C80000BC08091EE0291E0980F9093EE0290815C
:100C9000D901A80FB11D9C933196B2CFE091EE021D
:100CA00081E08E0F8093EE02F0E0E151FD4F8DE286
:100CB0008083DF91CF911F910F91FF90EF90089566
:100CC000EF92FF920F931F93CF93DF937C018B01E1
:100CD000C0E0D0E0BE016E0D7F1DC132D10549F0EC
:100CE00086E493E00E94030EF80181938F01219620
:100CF000F1CF81E290E0DF91CF911F910F91FF90B2
:100D0000EF900895EF92FF920F931F93CF93DF938D
:100D10007C018B01C0E0D0E0BE016E0D7F1DC132B1
:100D2000D10549F0F80141918F0186E493E00E94DA
:100D3000060E2196F1CF81E290E0DF91CF911F91D5
:100D40000F91FF90EF9008954F925F926F927F9274
:100D50008F929F92AF92BF92CF92DF92EF92FF92CB
:100D60000F931F9388E10FB6F89480936000109260
:100D700060000FBE26E040E855E260E070E089E5E3
:100D800093E00E941A1260E083E00E949D1060E0F0
:100D90008BE00E949D1060E08AE00E949D1060E060
:100DA00086E00E949D1062E088E00E949D1061E054
:100DB00089E00E949D1061E085E00E949D1061E045
:100DC0008CE00E949D1061E087E00E949D1061E030
:100DD0008DE00E949D10F89448EE53E060E070E0D2
:100DE00087E493E00E94940E0FEF1FEF980140E01C
:100DF00050E069E087E493E00E94C10E1092B000D9
:100E00001092B1001092B20089EF8093B3008091EC
:100E1000B00082608093B0008091B10082608093C6
:100E2000B10080917000826080937000789465EBCF
:100E300072E080E090E00E9460068091B50290919F
:100E4000B60297FD43C28BE090E00E94F304892B29
:100E500009F03CC28091B90280930B018091BA02E3
:100E600080930A018091BB02809310028091BC02A2
:100E70009091BD0297FD4BC080910B01873008F027
:100E800086E080930B01E0910A01E83108F0E7E188
:100E9000E0930A01A0911002AD3308F0ACE3A093F7
:100EA0001002F0E098E1899FE00DF11D1124B0E0FF
:100EB00024EC3FEF4FEF5FEF0E94EE176B017C01D8
:100EC0008091130290911402A0911502B091160224
:100ED000C80ED91EEA1EFB1E9F01A0EFB1EF0E94B3
:100EE000D017C60ED71EE81EF91EC0921702D09268
:100EF0001802E0921902F0921A0288E00E940C1186
:100F0000892B09F057C081E080933F0353C06FEEF7
:100F100072E08CE191E00E94F50563E271E08FE1FF
:100F200093E00E947D1A6FEE72E08FE193E00E94E1
:100F3000F5056CE271E08FE193E00E947D1A6FEE9F
:100F400072E08FE193E00E94F50586E00E94571061
:100F50007C010E94C40FC701860F971F0E94931443
:100F60002FE037E240E050E068EE73E080E090E090
:100F70000E94BF14DC01CB014AE06FE173E00E94E4
:100F8000841ABC018FEE92E00E94721AEFEEF2E03A
:100F9000ACEBB2E081912081992787FD9095820F7B
:100FA000911D27FD9A958D939D9382E0E93FF80767
:100FB00089F762CF65EB72E080E090E00E948206E4
:100FC00068EC70E080E493E00E940C1580E090E013
:100FD0000E94FD000E94BF016093150170931601ED
:100FE000809317019093180180E094E00E94FD0027
:100FF0000E94BF016B017C0140E050E068E271E4B7
:101000004093A9025093AA026093AB027093AC0282
:1010100080E090E0A0E6B1E48093A5029093A60260
:10102000A093A702B093A80280E090E0A0EFB0E404
:101030008093A1029093A202A093A302B093A40272
:1010400040939D0250939E0260939F027093A00272
:1010500040E050E060E970E44093990250939A02B6
:1010600060939B0270939C028093950290939602EA
:10107000A0939702B093980280E090E0A0ECBFE3C9
:101080008093910290939202A0939302B093940262
:1010900040938D0250938E0260938F027093900262
:1010A00040E050E060EC7FEB4093890250938A026D
:1010B00060938B0270938C028093850290938602DA
:1010C000A0938702B093880280E090E0A0E6B1ECA4
:1010D0008093810290938202A0938302B093840252
:1010E00080E090E0A0E2B1EC80937D0290937E02DC
:1010F000A0937F02B093800220E030E048E251E408
:10110000C701B6010E94141718160CF076C020E033
:1011100030E040E451E4C701B6010E94C9156B01FB
:101120007C0120E030E048E251E40E9418174B01B6
:101130005C016093A9027093AA028093AB02909322
:10114000AC0220E030E040E651E4C701B6010E9465
:1011500018176093A5027093A6028093A70290933C
:10116000A80220E030E040EF50E4C701B6010E9441
:1011700018172B013C016093A1027093A202809387
:10118000A3029093A40280929D0290929E02A0924C
:101190009F02B092A00220E030E040E950E4C70195
:1011A000B6010E9418174B015C016093990270937D
:1011B0009A0280939B0290939C02409295025092D7
:1011C0009602609297027092980220E030E040EC24
:1011D0005FE3C701B6010E941817609391027093F4
:1011E0009202809393029093940280928D02909247
:1011F0008E02A0928F02B09290021092AD021092D5
:10120000AE021092AF021092B0020E94E90061E0BB
:101210008CE00E94D61064E670E080E090E00E94CE
:10122000E70F80912C02813039F461E070E088E6AC
:1012300090E00E94AB04FFCF60E087E00E94D610F0
:1012400081E00E94F90064EF71E080E090E00E948C
:10125000E70F0E942D0360937502709376028093CE
:1012600077029093780260E08CE00E94D61080E0D4
:101270000E94F9000E94E90043E050E067E071E05D
:1012800081E00E94F40E82E290E090933E0380930E
:101290003D0329E288E190E00FB6F894A895809389
:1012A00060000FBE2093600080E094E01F910F91DA
:1012B000FF90EF90DF90CF90BF90AF909F908F9076
:1012C0007F906F905F904F900C94FD001092B5024C
:1012D0001092B6021092B7021092B8021092D30286
:1012E0001092D20288E18093D4028093D50280913B
:1012F0000B018093B90280910A018093BA02809118
:1013000010028093BB028EE18093D0028FE0809325
:10131000D102ACCD8091D802893639F568E371E00D
:1013200089E593E00E94B11320E030E040E253E40D
:1013300060917502709176028091770290917802A7
:101340000E941417181634F48091D0028F5F809396
:10135000D00205C08091D1028F5F8093D10265EBEE
:1013600072E080E090E00C948206843611F56BE424
:1013700071E089E593E00E94B11320E030E040E2A3
:1013800053E460917502709176028091770290919A
:1013900078020E941417181634F48091D0028150FC
:1013A0008093D00208958091D10281508093D10220
:1013B0000895833719F46EE571E00BC0E091D60211
:1013C000F091D702E852FD4F8AE38083118268EDE5
:1013D00072E089E593E00C94B1136EED71E080E466
:1013E00093E00C94491580E493E00C94DB1489E5B8
:1013F00093E00E943511892B99F11092D702109237
:10140000D60289E593E00E9450119093ED028093FB
:10141000EC028A33910599F08F3F2FEF920789F301
:101420002091D6023091D702F901E852FD4F808316
:101430002F5F3F4F3093D7022093D602E2CF89E54A
:1014400093E00E9450110196D1F70E948A09E09121
:10145000D602F091D702E852FD4F8AE380831182D1
:1014600008954F925F926F927F928F929F92AF9268
:10147000BF92CF92DF92EF92FF920F931F93CF9381
:10148000DF930E94F70980910E0190910F019093D4
:101490000D0180930C010E94160290930F0180931E
:1014A0000E018BE090E00E94F304892B91F48AE016
:1014B00090E00E94F304892B61F486E090E00E94A2
:1014C000F304892B31F488E090E00E94F304892B27
:1014D00051F08BE090E00E94F304892B09F460C383
:1014E00081E40E94670420910E0130910F018091E8
:1014F0000C0190910D012817390709F46AC00E9468
:10150000B80F609323027093240280932502909376
:10151000260260931F027093200280932102909311
:10152000220280910E0190910F010297E1F480E078
:1015300092E00E94FD000E94BF0120E030E040ECFC
:101540005FEB0E941417181634F485E090E0909336
:101550000F0180930E0110926D0210926E02109294
:101560006F021092700280910C0190910D01029710
:1015700081F56091B5027091B6028091B7029091A9
:10158000B8020E94621620916D0230916E02409165
:101590006F02509170020E9461150E94361660938E
:1015A000B5027093B6028093B7029093B8020E947E
:1015B00019058093B9020E9441058093BA020E94E6
:1015C00069058093BB0265EB72E080E090E00E94C9
:1015D000820680910E0190910F01892B39F480E0F1
:1015E0000E94F90080E094E00E94FD0080910E01CD
:1015F00090910F01019799F580E00E94F9000E94F7
:1016000096059093280280932702181619060CF06D
:10161000E0C286E090E00E94F304892B09F0D9C271
:1016200080913F03882309F4D4C2809128028F93CC
:10163000809127028F938FEC91E09F938F938DE29F
:1016400092E09F938F930E94A91A80E094E00E94F9
:10165000FD000F900F900F900F900F900F908091C2
:101660000E0190910F01029709F0BAC10E94460144
:1016700080917B0290917C020E94FD0081E00E949B
:10168000F9000E94A8036B017C0120917502309142
:10169000760240917702509178020E94181720E05C
:1016A00030E04AE754E40E94C915609371027093D8
:1016B000720280937302909374020E94B80F20917B
:1016C000230230912402621B730B70931202609309
:1016D00011020E94B80F609323027093240280933A
:1016E0002502909326028090710290907202A09041
:1016F0007302B0907402609111027091120280E046
:1017000090E00E9462169B01AC01C501B4010E94E9
:10171000181720E030E04AE754E40E94C91520E0A1
:1017200030E041E655E40E94C9159B01AC0160918F
:101730006D0270916E0280916F02909170020E9412
:10174000611560936D0270936E0280936F029093A7
:10175000700220E030E040E251E4C501B4010E9493
:1017600018170E9431160AE010E0CB01B8010E9460
:101770007B179F938F93C501B4010E9431167F930D
:101780006F9386E791E09F938F93CDE2D2E0DF9352
:10179000CF930E94A91A6091230270912402809134
:1017A00025029091260280901F0290902002A09026
:1017B0002102B0902202681979098A099B0928EE52
:1017C00033E040E050E00E948F17C9016CE370E005
:1017D0000E947B177F936F938AE891E09F938F938A
:1017E000DF93CF930E94A91A80906D0290906E02B1
:1017F000A0906F02B090700220E030E040E05EE325
:10180000C501B4010E9418172B013C0120E030E013
:1018100048EC52E40E9418170E943116CB0164E68E
:1018200070E00E947B179F938F93C301B2010E94C7
:1018300031167F936F9320E030E040E251E4C50120
:10184000B4010E9418170E943116CB01B8010E9402
:101850007B179F938F93C501B4010E9431167F932C
:101860006F9389E991E09F938F93DF93CF930E94C9
:10187000A91A609111017091120180911301909148
:1018800014010E9431167F936F93C701B6010E9425
:1018900031167F936F9360917502709176028091FB
:1018A0007702909178020E9431167F936F9381EBBB
:1018B00091E09F938F93DF93CF930E94A91A809119
:1018C000130290911402A0911502B091160240915A
:1018D0001B0250911C0260911D0270911E029C011E
:1018E000241B350BEDB7FEB7B4960FB6F894FEBFC8
:1018F0000FBEEDBF2B3031052CF4452B462B472B6B
:1019000009F06EC080931B0290931C02A0931D02ED
:10191000B0931E0280906D0290906E02A0906F02B4
:10192000B090700220E030E040E251E4609171023A
:101930007091720280917302909174020E94181744
:101940000E9431167F936F9320E030E040E251E433
:10195000C701B6010E9418170E9431167F936F933A
:1019600020E030E040E251E4C501B4010E941817C4
:101970000E9431167F936F936091B5027091B60209
:101980008091B7029091B8020E946216A50194015D
:101990000E9461150E9431167F936F9360917502CA
:1019A0007091760280917702909178020E943116B0
:1019B0007F936F9380EC91E09F938F938DE292E001
:1019C0009F938F930E94A91A8DE292E00E941F04B8
:1019D0008DB79EB70E960FB6F8949EBF0FBE8DBF03
:1019E00080910E0190910F01039719F480E00E94FD
:1019F000F90080910E0190910F019C012450310952
:101A00002230310518F08F3F910519F480E00E94D3
:101A1000F90080910E0190910F01029709F468C0BE
:101A200065EB72E080E090E00E946006C091B50234
:101A3000D091B602F090B702E090B80260913D03F9
:101A400070913E038091130290911402A0911502AF
:101A5000B091160200911B0210911C0220911D02F0
:101A600030911E02AC01401B510B4B30510524F448
:101A7000012B022B032BE1F580931B0290931C0298
:101A8000A0931D02B0931E02DB019E014F2D5E2D1F
:101A90000E94F91724E630E040E050E00E948F17E2
:101AA0003F932F93EF92FF92DF93CF936091750254
:101AB0007091760280917702909178020E9431169F
:101AC0007F936F9386EC91E09F938F938DE292E0EA
:101AD0009F938F930E94A91A8DE292E00E941F04A7
:101AE000EDB7FEB73C960FB6F894FEBF0FBEEDBF44
:101AF00080912C028823A1F080912B028F5F80932C
:101B00002B02853038F00E941602892BE1F71092E3
:101B10002B0206C084E893E00E94DE050E94E900E3
:101B20000E94EF0390932A02809329028B3591053E
:101B30008CF080E094E00E94FD0068EE73E080E0AD
:101B400090E00E94E70F80E00E94F90088E592E0B3
:101B50000E94DE058091290290912A028C3E9F4FBF
:101B600024F461E08DE00E94D610809129029091CA
:101B70002A02873F9F4FB4F160E08DE0DF91CF9163
:101B80001F910F91FF90EF90DF90CF90BF90AF909B
:101B90009F908F907F906F905F904F900C94D61095
:101BA0008AE090E00E94F304892B11F082E499CC42
:101BB00086E090E00E94F304892B11F083E491CC3D
:101BC00088E090E00E94F304892B09F48CCC84E433
:101BD00088CC0E94460180917B0290917C020E94F9
:101BE000FD003DCDDF91CF911F910F91FF90EF90C0
:101BF000DF90CF90BF90AF909F908F907F906F902D
:101C00005F904F900895CB010C949D1CCB01642FE5
:101C10000C94A51C1F920F920FB60F9211242F93B4
:101C20003F934F935F936F937F938F939F93AF9364
:101C3000BF93EF93FF93E0914A03F0914B03099513
:101C4000FF91EF91BF91AF919F918F917F916F9194
:101C50005F914F913F912F910F900FBE0F901F906A
:101C60001895FC01A3E0440F551F661F771FAA9526
:101C7000D1F74115510581E06807710514F481E041
:101C80000EC033E075956795579547953A95D1F70E
:101C90004115510581E0680771051CF482E08283DB
:101CA00031C023E075956795579547952A95D1F7EB
:101CB0004115510581E06807710514F483E0EFCF09
:101CC00092E075956795579547959A95D1F7411587
:101CD000510581E06807710514F484E0E0CF82E0EB
:101CE00075956795579547958A95D1F785E08283D5
:101CF0004115510581E06807710524F04FEF5FEF52
:101D000060E070E0518340835093870040938600E9
:101D100080918100887F80938100809181009281F1
:101D2000892B8093810008951092800020E12093F8
:101D300081000C94310EE62FDC012D913C91DA01EB
:101D40000E94E717BAE09695879577956795BA95BB
:101D5000D1F7E77FE13029F4709389006093880020
:101D60000895E23021F470938B0060938A00089507
:101D7000E1E8F0E02081DC0112968C91282B208391
:101D80000895DF92EF92FF920F931F93CF93DF930B
:101D9000EC01D62E7A01101611061206130624F451
:101DA000B901A8010E94310E8D2D877F813029F461
:101DB000219A80918000806806C0823031F4229A96
:101DC00080918000806280938000A7016D2DCE01FC
:101DD0000E949B0ECE01DF91CF911F910F91FF903A
:101DE000EF90DF900C94B80E8230E8F4E82FF0E02A
:101DF000EE0FFF1FE45BFC4F71836083813041F085
:101E0000809169008C7F842B80936900E89A089503
:101E100080916900440F551F440F551F837F842B09
:101E200080936900E99A08951F920F920FB60F925E
:101E300011242F933F934F935F936F937F938F93CF
:101E40009F93AF93BF93EF93FF9380914C03909137
:101E50004D03892B29F0E0914C03F0914D03099536
:101E6000FF91EF91BF91AF919F918F917F916F9172
:101E70005F914F913F912F910F900FBE0F901F9048
:101E800018951F920F920FB60F9211242F933F9324
:101E90004F935F936F937F938F939F93AF93BF9372
:101EA000EF93FF9380914E0390914F03892B29F07C
:101EB000E0914E03F0914F030995FF91EF91BF918F
:101EC000AF919F918F917F916F915F914F913F91D2
:101ED0002F910F900FBE0F901F9018951F920F9289
:101EE0000FB60F9211242F933F938F939F93AF932D
:101EF000BF938091510390915203A0915303B091ED
:101F000054033091500323E0230F2D3720F4019622
:101F1000A11DB11D05C026E8230F0296A11DB11D0C
:101F2000209350038093510390935203A093530343
:101F3000B09354038091550390915603A091570399
:101F4000B09158030196A11DB11D80935503909344
:101F50005603A0935703B0935803BF91AF919F913D
:101F60008F913F912F910F900FBE0F901F9018955A
:101F70002FB7F894609151037091520380915303ED
:101F8000909154032FBF08953FB7F8948091550363
:101F900090915603A0915703B091580326B5A89B82
:101FA00005C02F3F19F00196A11DB11D3FBF662747
:101FB000782F892F9A2F620F711D811D911D42E08C
:101FC000660F771F881F991F4A95D1F70895CF9202
:101FD000DF92EF92FF92CF93DF936B017C010E941F
:101FE000C40FEB01C114D104E104F10489F00E9493
:101FF0005F150E94C40F6C1B7D0B683E734090F30D
:1020000081E0C81AD108E108F108C851DC4FEACFD5
:10201000DF91CF91FF90EF90DF90CF9008950197DF
:1020200039F0880F991F880F991F02970197F1F7D0
:102030000895789484B5826084BD84B5816084BD40
:1020400085B5826085BD85B5816085BDEEE6F0E031
:10205000808181608083E1E8F0E01082808182608D
:102060008083808181608083E0E8F0E0808181600E
:102070008083E1EBF0E0808184608083E0EBF0E03E
:10208000808181608083EAE7F0E0808184608083E2
:10209000808182608083808181608083808180688C
:1020A00080831092C10008958093190108958E30A5
:1020B00008F08E5087702091190190E4299F9001BB
:1020C0001124822B80937C0080917A00806480931D
:1020D0007A0080917A0086FDFCCF80917800209173
:1020E000790090E0922B0895833081F028F48130BC
:1020F00099F08230A1F008958730A9F08830B9F0C6
:102100008430D1F4809180008F7D03C08091800065
:102110008F7780938000089584B58F7702C084B54F
:102120008F7D84BD08958091B0008F7703C080912A
:10213000B0008F7D8093B0000895CF93DF9390E03F
:10214000FC01E755FF4F2491FC01E354FF4F8491BC
:10215000882349F190E0880F991FFC01EB51FF4F54
:10216000A591B49185529F4FFC01C591D4919FB721
:10217000611108C0F8948C91209582238C938881FA
:1021800082230AC0623051F4F8948C91322F30953A
:1021900083238C938881822B888304C0F8948C914C
:1021A000822B8C939FBFDF91CF9108950F931F9344
:1021B000CF93DF931F92CDB7DEB7282F30E0F90120
:1021C000EB56FF4F8491F901E755FF4F1491F90148
:1021D000E354FF4F04910023C9F0882321F0698361
:1021E0000E9474106981E02FF0E0EE0FFF1FE552AE
:1021F000FF4FA591B4919FB7F8948C91611103C0E2
:102200001095812301C0812B8C939FBF0F90DF918C
:10221000CF911F910F910895CF93DF93282F30E036
:10222000F901EB56FF4F8491F901E755FF4FD49127
:10223000F901E354FF4FC491CC2391F081110E9426
:102240007410EC2FF0E0EE0FFF1FEF52FF4FA5913F
:10225000B4912C912D2381E090E021F480E002C024
:1022600080E090E0DF91CF910895FC01818D228D77
:1022700090E0805C9F4F821B910960E470E00E94B7
:102280007B170895FC01918D828D981731F0828D16
:10229000E80FF11D858D90E008958FEF9FEF089571
:1022A000FC01918D828D981761F0828DDF01A80F5E
:1022B000B11D5D968C91928D9F5F9F73928F90E080
:1022C00008958FEF9FEF089584ED92E1892B49F0F7
:1022D00080E090E0892B29F00E94D41281110C94A7
:1022E00000000895FC01848DDF01A80FB11DA35AE1
:1022F000BF4F2C91848D90E001968F739927848F26
:10230000A689B7892C93A089B1898C9180648C931C
:10231000938D848D981306C00288F389E02D808107
:102320008F7D80830895CF93DF93EC01888D882380
:10233000C9F0EA89FB89808185FD05C0A889B98932
:102340008C9186FD0FC00FB607FCF5CF808185FF0D
:10235000F2CFA889B9898C9185FFEDCFCE010E947B
:102360007211E7CFDF91CF910895CF92DF92FF9264
:102370000F931F93CF93DF931F92CDB7DEB76C01FE
:10238000DC015B969C915B975C968C915C979813B3
:1023900007C05096ED91FC915197808185FD32C028
:1023A000F601038D10E00F5F1F4F0F731127F02E02
:1023B000F601848DF81211C00FB607FCF9CFD601D3
:1023C0005096ED91FC915197808185FFF1CFC60128
:1023D00069830E9472116981EBCF838DE80FF11D33
:1023E000E35AFF4F6083D6015B960C935B9752963E
:1023F000ED91FC91539780818062808381E05896B3
:102400008C930DC0D6015696ED91FC915797608341
:102410005096ED91FC91519780818064808381E09A
:1024200090E00F90DF91CF911F910F91FF90DF907F
:10243000CF900895BF92CF92DF92EF92FF92CF9309
:10244000DF93EC016A017B01B22EE889F98982E011
:102450008083411581EE580761057105A1F060E0A8
:1024600079E08DE390E0A70196010E948F1721503B
:1024700031094109510956954795379527952115F9
:1024800080E1380798F0E889F989108260E874E8FB
:102490008EE190E0A70196010E948F17215031092B
:1024A000410951095695479537952795EC85FD8546
:1024B0003083EE85FF852083188EEC89FD89B082FC
:1024C000EA89FB89808180618083EA89FB89808138
:1024D00088608083EA89FB89808180688083EA89BB
:1024E000FB8980818F7D8083DF91CF91FF90EF907A
:1024F000DF90CF90BF9008951F920F920FB60F926A
:1025000011242F938F939F93EF93FF93E09169038F
:10251000F0916A038081E0916F03F091700382FD76
:1025200012C09081809172038F5F8F73209173032B
:10253000821751F0E0917203F0E0E75AFC4F958F5B
:102540008093720301C08081FF91EF919F918F91E1
:102550002F910F900FBE0F901F9018951F920F9202
:102560000FB60F9211242F933F934F935F936F9366
:102570007F938F939F93AF93BF93EF93FF9389E5DF
:1025800093E00E947211FF91EF91BF91AF919F91E3
:102590008F917F916F915F914F913F912F910F900C
:1025A0000FBE0F901F90189589E593E00E9435119A
:1025B00021E0892B09F420E0822F089510925C031A
:1025C00010925B0388EE93E0A0E0B0E080935D039F
:1025D00090935E03A0935F03B09360038FEF91E04D
:1025E00090935A038093590385EC90E0909366038F
:1025F0008093650384EC90E0909368038093670375
:1026000080EC90E090936A038093690381EC90E002
:1026100090936C0380936B0382EC90E090936E0335
:1026200080936D0386EC90E09093700380936F032A
:102630001092720310927303109274031092750338
:10264000089508950E9419100E9421130E94A40663
:10265000C4E6D1E10E94310A2097E1F30E9464119F
:10266000F9CFCF92DF92EF92FF920F931F93CF9308
:10267000DF936C017A01EB01E60EF71E00E010E03B
:10268000CE15DF0561F06991D601ED91FC910190C5
:10269000F081E02DC6010995080F191FF1CFC8017F
:1026A000DF91CF911F910F91FF90EF90DF90CF902E
:1026B00008956115710581F0DB010D900020E9F7A7
:1026C000AD0141505109461B570BDC01ED91FC91C6
:1026D0000280F381E02D099480E090E00895EF926C
:1026E000FF920F931F93CF93DF938C01FB01C0E008
:1026F000D0E064917F018FEFE81AF80A662361F059
:10270000D801ED91FC910190F081E02DC80109956F
:10271000C80FD91FF701EDCFCE01DF91CF911F91E7
:102720000F91FF90EF9008950C945913DC01ED91F7
:10273000FC910190F081E02D09940F931F93CF93AA
:10274000DF93EC016DE00E9496138C016AE0CE01EC
:102750000E949613800F911FDF91CF911F910F91CF
:1027600008950F931F93CF93DF93EC010E945913A9
:102770008C01CE010E949D13800F911FDF91CF919C
:102780001F910F9108950F931F93CF93DF93EC0147
:102790000E9496138C01CE010E949D13800F911F01
:1027A000DF91CF911F910F9108958F929F92AF92D9
:1027B000BF92CF92DF92EF92FF920F931F93CF932E
:1027C000DF93CDB7DEB7A1970FB6F894DEBF0FBE8B
:1027D000CDBF7C01C42EE52FCB01D22E19A221E062
:1027E0002D1510F02AE0D22E8E010F5D1F4F8D2C7B
:1027F000912CA12CB12C6C2D7E2FA50194010E944F
:102800008F178C2DD29E80191124015011098A3006
:1028100014F4805D01C0895CF801808321153105C5
:102820004105510521F0C22EE32FCA01E4CFB801C2
:10283000C7010E945913A1960FB6F894DEBF0FBED0
:10284000CDBFDF91CF911F910F91FF90EF90DF905F
:10285000CF90BF90AF909F908F900895CF92DF92CE
:10286000EF92FF920F931F93CF93DF93EC016A01D6
:102870007B012115310579F4E881F9810190F0811E
:10288000E02D642FDF91CF911F910F91FF90EF907A
:10289000DF90CF9009942A303105E9F477FF1AC010
:1028A0006DE20E9496138C0144275527BA014C19FA
:1028B0005D096E097F092AE0CE010E94D513800FC1
:1028C000911FDF91CF911F910F91FF90EF90DF90BB
:1028D000CF9008952AE0B701A601CE01DF91CF91F4
:1028E0001F910F91FF90EF90DF90CF900C94D51334
:1028F0009A01AB01662757FD6095762F0C942E1434
:102900002115310541F4DC01ED91FC910190F0813C
:10291000E02D642F09940C94D5139A01AB0160E06B
:1029200070E00C948014009729F0BC0180E090E0E6
:102930000C9496190895CF93DF9300D000D0CDB7B3
:10294000DEB79B01AC01611571058105910569F048
:1029500069833A834B835C830E94911929813A8170
:102960004B815C810E94B11703C060E070E0CB0135
:102970000F900F900F900F90DF91CF910895CF920D
:10298000DF92EF92FF926B017C016217730784075D
:10299000950764F4CA01B9016C197D098E099F0974
:1029A0000E949B146C0D7D1D8E1D9F1DFF90EF904E
:1029B000DF90CF900895FC01808191810C94B31831
:1029C000CF93DF93EC0188819981009711F00E94E9
:1029D000B318198218821D821C821B821A82DF9111
:1029E000CF9108950F931F93CF93DF93EC018B0149
:1029F0006F5F7F4F888199810E949F19009731F006
:102A0000998388831B830A8381E001C080E0DF9182
:102A1000CF911F910F910895CF93DF93EC0188819F
:102A20009981892B29F08A819B818617970760F409
:102A3000CE010E94F214882341F08C819D81892B64
:102A400019F4E881F981108281E0DF91CF91089536
:102A5000EF92FF920F931F93CF93DF93EC017B01D3
:102A60008A01BA010E940C15811104C0CE010E9496
:102A7000E01407C01D830C83B701888199810E94EF
:102A80007D1ACE01DF91CF911F910F91FF90EF90B2
:102A90000895FC0111821082138212821582148221
:102AA0006115710559F0FB0101900020E9F7AF01B4
:102AB00041505109461B570B0C9428150895089551
:102AC0005058BB27AA270ED075C166D130F06BD104
:102AD00020F031F49F3F11F41EF45BC10EF4E09539
:102AE000E7FB51C1E92F77D180F3BA17620773076B
:102AF0008407950718F071F49EF58FC10EF4E095E8
:102B00000B2EBA2FA02D0B01B90190010C01CA01A7
:102B1000A0011124FF27591B99F0593F50F4503E52
:102B200068F11A16F040A22F232F342F4427585F44
:102B3000F3CF469537952795A795F0405395C9F75C
:102B40007EF41F16BA0B620B730B840BBAF0915014
:102B5000A1F0FF0FBB1F661F771F881FC2F70EC0B3
:102B6000BA0F621F731F841F48F487957795679586
:102B7000B795F7959E3F08F0B3CF9395880F08F06F
:102B80009927EE0F979587950895D9D008F481E09D
:102B900008950CD00FC107D140F0FED030F021F4E1
:102BA0005F3F19F0F0C0511139C1F3C014D198F34F
:102BB0009923C9F35523B1F3951B550BBB27AA27BE
:102BC00062177307840738F09F5F5F4F220F331F30
:102BD000441FAA1FA9F333D00E2E3AF0E0E830D0FC
:102BE00091505040E695001CCAF729D0FE2F27D0FF
:102BF000660F771F881FBB1F261737074807AB07CD
:102C0000B0E809F0BB0B802DBF01FF2793585F4F41
:102C10002AF09E3F510568F0B6C000C15F3FECF35B
:102C2000983EDCF3869577956795B795F7959F5F06
:102C3000C9F7880F911D9695879597F90895E1E05A
:102C4000660F771F881FBB1F621773078407BA07B9
:102C500020F0621B730B840BBA0BEE1F88F7E09514
:102C6000089504D06894B111D9C00895BCD088F0FB
:102C70009F5790F0B92F9927B751A0F0D1F0660F68
:102C8000771F881F991F1AF0BA95C9F712C0B13083
:102C900081F0C3D0B1E00895C0C0672F782F882796
:102CA000B85F39F0B93FCCF3869577956795B395C2
:102CB000D9F73EF490958095709561957F4F8F4F31
:102CC0009F4F0895E89409C097FB3EF49095809536
:102CD000709561957F4F8F4F9F4F9923A9F0F92FE2
:102CE00096E9BB279395F695879577956795B79560
:102CF000F111F8CFFAF4BB0F11F460FF1BC06F5F46
:102D00007F4F8F4F9F4F16C0882311F096E911C057
:102D1000772321F09EE8872F762F05C0662371F078
:102D200096E8862F70E060E02AF09A95660F771F8C
:102D3000881FDAF7880F9695879597F90895990F68
:102D40000008550FAA0BE0E8FEEF16161706E80775
:102D5000F907C0F012161306E407F50798F0621B96
:102D6000730B840B950B39F40A2661F0232B242B6B
:102D7000252B21F408950A2609F4A140A6958FEF8A
:102D8000811D811D089597F99F6780E870E060E0DC
:102D900008959FEF80EC089500240A9416161706F4
:102DA00018060906089500240A941216130614063C
:102DB00005060895092E0394000C11F4882352F09F
:102DC000BB0F40F4BF2B11F460FF04C06F5F7F4F57
:102DD0008F4F9F4F089557FD9058440F551F59F03E
:102DE0005F3F71F04795880F97FB991F61F09F3FF8
:102DF00079F087950895121613061406551FF2CF21
:102E00004695F1DF08C0161617061806991FF1CF70
:102E100086957105610508940895E894BB27662797
:102E20007727CB0197F908958ADF08F48FEF08958B
:102E30000BD0C0CFB1DF28F0B6DF18F0952309F032
:102E4000A2CFA7CF1124EACFC6DFA0F3959FD1F37D
:102E5000950F50E0551F629FF001729FBB27F00D48
:102E6000B11D639FAA27F00DB11DAA1F649F66279D
:102E7000B00DA11D661F829F2227B00DA11D621FEC
:102E8000739FB00DA11D621F839FA00D611D221FA6
:102E9000749F3327A00D611D231F849F600D211D8A
:102EA000822F762F6A2F11249F5750408AF0E1F02D
:102EB00088234AF0EE0FFF1FBB1F661F771F881F76
:102EC00091505040A9F79E3F510570F05CCFA6CFBE
:102ED0005F3FECF3983EDCF3869577956795B79561
:102EE000F795E7959F5FC1F7FE2B880F911D96958B
:102EF000879597F9089597FB072E16F4009407D04D
:102F000077FD09D00E94011807FC05D03EF490958A
:102F100081959F4F0895709561957F4F0895A1E227
:102F20001A2EAA1BBB1BFD010DC0AA1FBB1FEE1F43
:102F3000FF1FA217B307E407F50720F0A21BB30B8E
:102F4000E40BF50B661F771F881F991F1A9469F70A
:102F500060957095809590959B01AC01BD01CF0166
:102F60000895052E97FB1EF400940E94C81757FD84
:102F700007D00E948F1707FC03D04EF40C94C8179B
:102F800050954095309521953F4F4F4F5F4F089595
:102F900090958095709561957F4F8F4F9F4F0895C5
:102FA0000E94D817332312F48A1B9B0B0C94E91749
:102FB000A29FB001B39FC001A39F700D811D11247A
:102FC000911DB29F700D811D1124911D08950E94C5
:102FD000D817B7FF0895821B930B08950E94D81746
:102FE000A59F900DB49F900DA49F800D911D11245D
:102FF0000895B7FF0C94EE170E94EE17821B930BF7
:103000000895AA1BBB1B51E107C0AA1FBB1FA6172F
:10301000B70710F0A61BB70B881F991F5A95A9F781
:1030200080959095BC01CD010895EE0FFF1F05908E
:10303000F491E02D0994CF93DF938230910510F441
:1030400082E090E0E091F803F091F90320E030E0B5
:10305000A0E0B0E0309739F140815181481759071D
:10306000B8F04817590771F482819381109729F0BD
:1030700013969C938E9312972CC09093F903809390
:10308000F80327C02115310531F04217530718F016
:10309000A901DB0101C0EF019A01BD01DF0102803E
:1030A000F381E02DD7CF21153105F9F0281B390B1D
:1030B0002430310580F48A819B816115710521F0EE
:1030C000FB019383828304C09093F9038093F803F8
:1030D000FE01329644C0FE01E20FF31F81939193EB
:1030E00022503109398328833AC02091F603309168
:1030F000F703232B41F42091020130910301309317
:10310000F7032093F603209100013091010121156E
:10311000310541F42DB73EB74091040150910501AE
:10312000241B350BE091F603F091F703E217F30748
:10313000A0F42E1B3F0B2817390778F0AC014E5F27
:103140005F4F2417350748F04E0F5F1F5093F7036A
:103150004093F6038193919302C0E0E0F0E0CF0149
:10316000DF91CF910895CF93DF93009709F487C043
:10317000FC01329713821282C091F803D091F903B7
:10318000209781F420813181280F391F8091F60327
:103190009091F7038217930779F5F093F703E09383
:1031A000F6036DC0DE0120E030E0AE17BF0750F43B
:1031B00012964D915C9113979D014115510509F1AE
:1031C000DA01F3CFB383A28340815181840F951F2D
:1031D0008A179B0771F48D919C911197840F951F0D
:1031E00002969183808312968D919C91139793837D
:1031F00082832115310529F4F093F903E093F80354
:103200003EC0D9011396FC93EE9312974D915D91B8
:10321000A40FB51FEA17FB0779F480819181840F11
:10322000951F0296D90111969C938E93828193816A
:1032300013969C938E931297E0E0F0E08A819B8135
:10324000009719F0FE01EC01F9CFCE01029628811A
:103250003981820F931F2091F6033091F7032817CD
:10326000390769F4309729F41092F9031092F803A2
:1032700002C013821282D093F703C093F603DF914A
:10328000CF9108958F929F92AF92BF92CF92DF928B
:10329000EF92FF92CF93DF93EC01688179818A816D
:1032A0009B81611571058105910521F464E279ED39
:1032B0008BE597E02DE133EF41E050E00E94B1173C
:1032C00049015A019B01AC01A7EAB1E40E94EE1743
:1032D0006B017C01ACEEB4EFA50194010E94FC17D8
:1032E000C60ED71EE81EF91EF7FE06C081E0C81AFA
:1032F000D108E10880E8F80AC882D982EA82FB8214
:10330000C701B6019F77DF91CF91FF90EF90DF90DB
:10331000CF90BF90AF909F908F9008950E944219D8
:10332000089586E091E00E94421908956093060195
:103330007093070180930801909309010895A0E01C
:10334000B0E0E5EAF9E10C946D1DEC01CB012097AA
:1033500019F40E941B18B8C0FE01E60FF71F9E016A
:1033600022503109E217F30708F4ACC0D9010D91DE
:103370001C91119706171707B8F00530110508F4CE
:103380009FC0A801445051094617570708F498C038
:1033900002501109061B170B019311936D937C9337
:1033A000CF010E94B3188CC05B01A01AB10A4E0174
:1033B000800E911EA091F803B091F903612C712C3D
:1033C00060E070E0109709F449C0A815B905C9F587
:1033D000ED90FC901197670142E0C40ED11CCA1415
:1033E000DB0478F147018A189B08640142E0C40EAF
:1033F000D11C1296BC9012971396AC91B5E0CB16E7
:10340000D10440F0B282A38391828082D9018D934E
:103410009C9309C00E5F1F4F0E0D1F1DF9011183F4
:103420000083EB2DFA2F6115710531F0DB01139646
:10343000FC93EE93129744C0F093F903E093F803E2
:103440003FC06D917C9111976616770608F43B0199
:10345000BD0112960D90BC91A02DB4CF6091F603E2
:103460007091F70368157905E9F468167906D0F4C8
:1034700040910001509101014115510541F44DB7B2
:103480005EB76091040170910501461B570BE4176C
:10349000F507C0F4F093F703E093F603F901918385
:1034A00080830EC00E941B187C01009759F0A80170
:1034B000BE010E94691ACE010E94B318C70104C060
:1034C000CE0102C080E090E0CDB7DEB7EEE00C9414
:1034D000891DFB01DC0102C001900D92415050405A
:1034E000D8F70895FB01DC010D900020E9F7119752
:1034F00001900D920020E1F70895FB01DC0101909D
:103500000D920020E1F70895BB274A3031F499234A
:1035100022F4BDE2909581959F4F0C94901ABB27A1
:10352000FB015527AA27880F991FAA1FA41710F07F
:10353000A41B83955051B9F7A05DAA3308F0A95D8B
:10354000A193009779F7B111B1931192CB010C942B
:10355000C91CAEE0B0E0EFEAFAE10C94771D0D89EA
:103560001E8986E08C831A8309838FEF9FE79E83F1
:103570008D83AE01475E5F4F6F89788DCE010196D6
:103580000E94CB1AEF81F885E00FF11F10822E9672
:10359000E4E00C94931DACE0B0E0E1EDFAE10C94B2
:1035A000691D7C016B018A01FC01178216828381EF
:1035B00081FFBDC1CE0101964C01F7019381F60157
:1035C00093FD859193FF81916F01882309F4ABC12D
:1035D000853239F493FD859193FF81916F01853296
:1035E00029F4B70190E00E94D91CE7CF512C312C6F
:1035F00020E02032A0F48B3269F030F4803259F0B0
:10360000833269F420612CC08D3239F0803339F473
:10361000216026C02260246023C0286021C027FDCD
:1036200027C030ED380F3A3078F426FF06C0FAE0B4
:103630005F9E300D1124532E13C08AE0389E300D4A
:103640001124332E20620CC08E3221F426FD6BC172
:10365000206406C08C3611F4206802C0883641F41C
:10366000F60193FD859193FF81916F018111C1CF87
:10367000982F9F7D9554933028F40C5F1F4FFFE3E4
:10368000F9830DC0833631F0833771F0833509F04B
:103690005BC022C0F801808189830E5F1F4F4424E4
:1036A0004394512C540115C03801F2E06F0E711C87
:1036B000F801A080B18026FF03C0652D70E002C034
:1036C0006FEF7FEFC5012C870E94BE1C2C01830188
:1036D0002C852F77222E17C03801F2E06F0E711C57
:1036E000F801A080B18026FF03C0652D70E002C004
:1036F0006FEF7FEFC5012C870E94B31C2C012C8536
:103700002068222E830123FC1BC0832D90E04816E5
:103710005906B0F4B70180E290E00E94D91C3A94B7
:10372000F4CFF50127FC859127FE81915F01B70158
:1037300090E00E94D91C31103A94F1E04F1A5108E0
:103740004114510471F7E5C0843611F0893639F51A
:10375000F80127FF07C060817181828193810C5F2E
:103760001F4F08C060817181882777FD8095982F51
:103770000E5F1F4F2F76B22E97FF09C09095809550
:10378000709561957F4F8F4F9F4F2068B22E2AE032
:1037900030E0A4010E940B1DA82EA81844C0853754
:1037A00029F42F7EB22E2AE030E025C0F22FF97FD7
:1037B000BF2E8F36C1F018F4883579F0B4C0803749
:1037C00019F0883721F0AFC02F2F2061B22EB4FE40
:1037D0000DC08B2D8460B82E09C024FF0AC09F2F16
:1037E0009660B92E06C028E030E005C020E130E048
:1037F00002C020E132E0F801B7FE07C060817181AC
:10380000828193810C5F1F4F06C06081718180E0CF
:1038100090E00E5F1F4FA4010E940B1DA82EA81858
:10382000FB2DFF77BF2EB6FE0BC02B2D2E7FA514D0
:1038300050F4B4FE0AC0B2FC08C02B2D2E7E05C089
:103840007A2C2B2D03C07A2C01C0752C24FF0DC0BF
:10385000FE01EA0DF11D8081803311F4297E09C03B
:1038600022FF06C07394739404C0822F867809F0F7
:10387000739423FD13C020FF06C05A2C731418F450
:10388000530C5718732C731468F4B70180E290E05E
:103890002C870E94D91C73942C85F5CF731410F4D7
:1038A000371801C0312C24FF12C0B70180E390E02B
:1038B0002C870E94D91C2C8522FF17C021FF03C032
:1038C00088E590E002C088E790E0B7010CC0822F45
:1038D000867859F021FD02C080E201C08BE227FD0D
:1038E0008DE2B70190E00E94D91CA51438F4B7010D
:1038F00080E390E00E94D91C5A94F7CFAA94F40177
:10390000EA0DF11D8081B70190E00E94D91CA11041
:10391000F5CF332009F451CEB70180E290E00E9448
:10392000D91C3A94F6CFF7018681978102C08FEFB8
:103930009FEF2C96E2E10C94851DF999FECF92BD84
:1039400081BDF89A992780B50895262FF999FECF61
:103950001FBA92BD81BD20BD0FB6F894FA9AF99AAC
:103960000FBE01960895FC01059061507040011052
:10397000D8F7809590958E0F9F1F0895FC01615098
:10398000704001900110D8F7809590958E0F9F1F81
:103990000895DC01FC01672F71917723E1F73297DD
:1039A00004C07C916D9370836291AE17BF07C8F31A
:1039B00008950F931F93CF93DF93182F092FEB01D7
:1039C0008B8181FD03C08FEF9FEF20C082FF10C06D
:1039D0004E815F812C813D81421753077CF4E88141
:1039E000F9819F012F5F3F4F39832883108306C0E1
:1039F000E885F985812F0995892B29F72E813F814B
:103A00002F5F3F4F3F832E83812F902FDF91CF91E8
:103A10001F910F910895FA01AA27283051F1203102
:103A200081F1E8946F936E7F6E5F7F4F8F4F9F4F52
:103A3000AF4FB1E03ED0B4E03CD0670F781F891F94
:103A40009A1FA11D680F791F8A1F911DA11D6A0F62
:103A5000711D811D911DA11D20D009F468943F9115
:103A60002AE0269F11243019305D3193DEF6CF0114
:103A70000895462F4770405D4193B3E00FD0C9F7DA
:103A8000F6CF462F4F70405D4A3318F0495D31FD47
:103A90004052419302D0A9F7EACFB4E0A69597959A
:103AA000879577956795BA95C9F700976105710570
:103AB00008959B01AC010A2E0694579547953795BA
:103AC0002795BA95C9F7620F731F841F951FA01D14
:103AD00008952F923F924F925F926F927F928F92B2
:103AE0009F92AF92BF92CF92DF92EF92FF920F938D
:103AF0001F93CF93DF93CDB7DEB7CA1BDB0B0FB697
:103B0000F894DEBF0FBECDBF09942A883988488853
:103B10005F846E847D848C849B84AA84B984C884E9
:103B2000DF80EE80FD800C811B81AA81B981CE0FE0
:103B3000D11D0FB6F894DEBF0FBECDBFED010895C5
:103B400010E0C4EFD0E004C0FE010E9417182296D6
:0A3B5000C63FD107C9F7F894FFCF74
:103B5A000000FA038000010000000C05FFFFFFFFD0
:103B6A00FF0000F041000040C1012C0056382E39F8
:103B7A002E310031333A35363A3532004465632006
:103B8A003133203230313400496E637265617369B2
:103B9A006E672043757272656E7400446563726560
:103BAA006173696E672043757272656E740053653E
:103BBA006C6620446573747275637420496E697407
:103BCA00696174656400506F7765723A2025642EC6
:103BDA0025303164204B5720200054696D653A2006
:103BEA002564206D696E20200025642E25303164FD
:103BFA00204B574820282425642E2530326429205A
:103C0A00002564562C20256441202825642920009B
:103C1A0025642C25642C25642C25642C25640057E6
:103C2A00616974202564206D696E20202020004D72
:103C3A006F6E0054756500576564005468750046D8
:103C4A007269005361740053756E0000000000B57C
:0C3C5A001131133511501142119311006B
:00000001FF
