:10000000FBC100000C949F180C94D0180C9401199B
:100010000C9432190C9463190C9494190C94C5190E
:100020000C94F6190C9459150C9480150C94A71582
:1000300014C2000013C2000010C200000EC2000073
:100040000CC200000AC2000008C2000006C2000084
:100050000C94CE1502C2000000C200000C94271AB6
:10006000FCC100000C94B11D0C94E71DF6C100000A
:10007000F4C10000F2C10000F0C10000EEC10000B8
:10008000ECC10000EAC10000E8C10000E6C10000C8
:10009000E4C10000E2C10000E0C10000DEC10000D8
:1000A000DCC10000DAC10000D8C10000D6C10000E8
:1000B000D4C10000D2C10000D0C10000CEC10000F8
:1000C000CCC10000CAC10000C8C10000C6C1000008
:1000D000C4C10000C2C10000C0C10000BEC1000018
:1000E000BCC10000791843184B18571864188518BC
:1000F0009218711B741B631B671B6D1BAB1B781B5A
:100100007C1B821B861B8A1B901B941B981BAB1BA2
:100110009E1BA21BA61B413D55502C20443D444F25
:10012000574E200A423D5750532C20433D53454CD7
:100130004543540053657420616C6C20746F20300B
:100140002D323420746F0A64697361626C652074A7
:10015000696D6572005365742074696D653A0A278C
:10016000412720746F206368616E67652C0A2743FE
:100170002720746F2073656C656374005365742069
:100180006461793A0A27412720746F206368616EA1
:1001900067652C0A27432720746F2073656C65639D
:1001A00074005345542054494D45204F4620555323
:1001B000450053455420434C4F434B005052494E49
:1001C00054204944005345542043555252454E54FF
:1001D00000455849540034746820474649207472D9
:1001E0006970210A556E706C7567202F2072652D1D
:1001F000706C75670A746F20726573756D65004762
:1002000046492074726970706564210A526574727F
:1002100079696E6720696E203135206D696E2E2EEA
:100220002E00413D4D454E552C20423D5750532008
:100230000A433D464F5243452053544152540052C5
:1002400045414459207C20202000524541445920FA
:100250002D20202000413D6F7574432B2C20443D00
:100260006F7574432D200A423D57505300202020C3
:100270002020202020202020202020200053545502
:10028000434B2052454C415921200A554E504C5564
:100290004720260A436F6E746163742075730A45A4
:1002A000786974696E672E2E2E005468616E6B201B
:1002B000596F7520666F720A63686F6F73696E6736
:1002C000200A4A2E752E692E632E6520422E6F2E2F
:1002D00078202121210000000A0B02090C0D0E08D4
:1002E00007030401000000000000000000000000FF
:1002F00000000000000000000000000000000000FE
:1003000000001211100000000000000000000000BA
:1003100000000000000000000000000001021020AA
:10032000200808102040102040800201020108042B
:1003300002010102040810204080804020100804BF
:100340000201800402018040201008040201080418
:10035000020101020408102040800102040810205C
:100360004080050505050705080808080202020285
:100370000A0A080804040404010101010101010141
:100380000303030303030303040707070C0C0C0C0C
:100390000C0C0C0C020202020606060606060606F5
:1003A0000B0B0B0B0B0B0B0B00002000230026008C
:1003B00029002C002F00320000010000030106017B
:1003C000090100002200250028002B002E0031002A
:1003D000340002010000050108010B0100002100AA
:1003E000240027002A002D00300033000101000006
:1003F000040107010A01191E11241FBECFEFD1E22B
:10040000DEBFCDBF00E00CBF13E0A0E0B2E0E6E746
:10041000FBE400E00BBF02C007900D92AA3DB107BC
:10042000D9F725E0AAEDB3E001C01D92A33CB207C5
:10043000E1F713E0C8EFD3E000E006C0229701091E
:10044000FE010BBF0E947322C63FD10780E0080760
:10045000A9F70E945D1E0C94B925D2CD1F920F9270
:100460000FB60F9211242F933F938F939F93AF93C7
:10047000BF938091DC039091DD0301969093DD039F
:100480008093DC032091DA033091DB032F5F3F4F31
:100490003093DB032093DA0380349F41C1F4109240
:1004A000DD031092DC038091E1039091E203A091BF
:1004B000E303B091E4030196A11DB11D8093E10314
:1004C0009093E203A093E303B093E403A895BF9154
:1004D000AF919F918F913F912F910F900FBE0F90F1
:1004E0001F9018951092FB0360E087E00E94E51BC7
:1004F00064E670E080E090E00E94A01A61E087E08E
:100500000C94E51B682F85E00C94E51B9093610427
:1005100080936004AC0169E088E095E00C94621679
:100520000F931F930E94711A0091ED031091EE0337
:100530002091EF033091F0030617170728073907BA
:1005400098F40E94711A0091ED031091EE0320912E
:10055000EF033091F003601B710B820B930B643639
:10056000710581059105B0F01AE080ED97E00E94D9
:10057000C51A83E00E941A1C019751F481E0809310
:10058000FB0380E094E0C2DF80E01F910F91BACFBF
:10059000115059F71F910F910895CF92DF92EF926A
:1005A000FF9220E030E040EF52E460915C047091F3
:1005B0005D0480915E0490915F040E943B20811154
:1005C00030C06091B804662321F08091C00481118D
:1005D00034C085E00E94341BBC01882777FD8095DC
:1005E000982F0E94DA2020E030E040E85AE30E9491
:1005F0008E216B017C012DEC3CEC4CE45DE30E9410
:100600008A2118160CF049C020E030E040E751E4A0
:10061000C701B6010E948E219B01AC010E94D71F29
:1006200034C060911E026F3F41F46091B7046623AD
:1006300051F08091C004882331F070E080E090E0B8
:100640000E94D82022C083E00E94341BBC0188276E
:1006500077FD8095982F0E94DA2020E030E040E876
:100660005AE30E948E216B017C012DEC3CEC4CE4A2
:100670005DE30E948A21181684F420E030E040E710
:1006800052E4C701B6010E948E2160931F0270934D
:1006900020028093210290932202C0901F02D090EA
:1006A0002002E0902102F090220220E030E04CE4B1
:1006B00052E4C701B6010E943B2087FF0FC020E033
:1006C00030E040E854E4C701B6010E948E2120E0EA
:1006D00030E040E752E40E943F2014C020E030E0C8
:1006E0004AE753E4C701B6010E943F202AE037EDF4
:1006F00043E25FE30E94D71F20E030E040E854E48B
:100700000E948E210E94AC20709363046093620467
:1007100080916204909163048B3C934030F08AECAA
:1007200093E09093630480936204FF90EF90DF90D6
:10073000CF900895CF92DF92EF92FF92CF93DF9305
:1007400064E670E080E090E00E94A01A80E00E94E1
:10075000341BEC0184EC99E00E94C51A80E00E94F1
:10076000341B8C0F9D1FBC01882777FD8095982F27
:100770000E94DA2020E030E040EA50E40E948E211E
:1007800020E030E040E85AE30E948E2120E030E093
:1007900040E05FE30E948E216B017C019B01AC0174
:1007A0000E94D71F20E030E040EA50E40E94D61FAC
:1007B0002BE739E04DE650E40E948E21A701960117
:1007C0000E94D71F609398047093990480939A04B1
:1007D00090939B04DF91CF91FF90EF90DF90CF90AB
:1007E00008954F925F926F927F928F929F92AF92F5
:1007F000BF92CF92DF92EF92FF92A0906004B090F0
:10080000610498DF6B017C01A11484E0B80691F1CA
:10081000409023025090240260902502709026029E
:10082000609162047091630480E090E00E94D8209F
:100830004B015C01A3019201C701B6010E94D61FC2
:1008400020E030E040E854E40E948E216B017C01FE
:10085000A5019401C301B2010E948E219B01AC014C
:10086000C701B6010E94D71FA50194010E943F2035
:100870006B017C012091900430919104409192048D
:1008800050919304C701B6010E948A2118167CF486
:1008900020918C0430918D0440918E0450918F04EE
:1008A000C701B6010E943B2018160CF098C0209199
:1008B00088043091890440918A0450918B04C701C7
:1008C000B6010E948A2118168CF42091840430917C
:1008D00085044091860450918704C701B6010E94A7
:1008E0003B2018161CF081E090E087C02091800426
:1008F000309181044091820450918304C701B60174
:100900000E948A2118167CF420917C0430917D0489
:1009100040917E0450917F04C701B6010E943B20A4
:1009200018160CF05FC02091780430917904409142
:100930007A0450917B04C701B6010E948A211816DF
:100940007CF42091740430917504409176045091A8
:100950007704C701B6010E943B2018160CF045C071
:10096000209170043091710440917204509173048D
:10097000C701B6010E948A21181674F420916C04F4
:1009800030916D0440916E0450916F04C701B6011F
:100990000E943B20181664F5209168043091690488
:1009A00040916A0450916B04C701B6010E948A21EC
:1009B000181674F420916404309165044091660423
:1009C00050916704C701B6010E943B2018169CF4A1
:1009D00080911C0290911D02029721F484CF80E047
:1009E00090E00BC082E090E008C083E090E005C09A
:1009F00084E090E002C085E090E0FF90EF90DF900F
:100A0000CF90BF90AF909F908F907F906F905F90AE
:100A10004F900895CF92DF92EF92FF9281E00E9473
:100A2000341BBC01882777FD8095982F0E94DA201F
:100A300020E030E040EA50E40E948E2120E030E0E7
:100A400040E85AE30E948E216B017C0168E070E06F
:100A500080E090E00E94A01A81E00E94341BBC015B
:100A6000882777FD8095982F0E94DA2020E030E0DB
:100A700040EA50E40E948E2120E030E040E85AE352
:100A80000E948E219B01AC01C701B6010E94D71FB5
:100A900020E030E040E05FE30E948E21209194044A
:100AA0003091950440919604509197040E94D61F6E
:100AB00020E030E048E353E40E948E216B017C018A
:100AC00020E030E044E253E40E943B2087FD0FC069
:100AD00020E030E04CE553E4C701B6010E943B2022
:100AE00087FF0AC060E070E080E593E409C060E041
:100AF00070E080EF92E404C060E070E080E793E48F
:100B0000FF90EF90DF90CF900895CF92DF92EF9219
:100B1000FF9282E00E94341B7C0168E070E080E07C
:100B200090E00E94A01A82E00E94341B8E0D9F1D4F
:100B3000BC01882777FD8095982F0E94DA2020E05D
:100B400030E040EA50E40E948E2120E030E040E0B6
:100B50005FE30E948E2120E030E040E85AE30E94EB
:100B60008E216B017C012DEC3CEC4CEC5DE30E9492
:100B70008A2118164CF420E030E044E951E4C70122
:100B8000B6010E948E2103C060E070E0CB01FF90AF
:100B9000EF90DF90CF900895CF93DF9388EC809310
:100BA0007C0080917A00806880937A0064E170E034
:100BB00080E090E00E94A01A80917A008064809387
:100BC0007A0080917A0086FDFCCFC0917800D091A8
:100BD000790081E00E94311BC454D14020E52C9F54
:100BE000C0012D9F900D112462E670E00E94F1215A
:100BF000CB01DF91CF910895AF92BF92CF92DF9258
:100C0000EF920F93922F56012091C004222379F086
:100C1000242F30E0462F50E0682F70E0CE2CE02EDD
:100C2000092F8091C1049091C2040E94FF170F9177
:100C3000EF90DF90CF90BF90AF900895AF92BF92AA
:100C4000CF92DF92EF920F93922F56012091C00422
:100C5000222379F0242F30E0462F50E0682F70E0F7
:100C6000CE2CE02E092F8091C1049091C2040E94E5
:100C7000D0170F91EF90DF90CF90BF90AF90089575
:100C80000F931F93CF93DF938C0164E286E295E08C
:100C90000E94CD1E68E272E086E295E00E94CC1EC2
:100CA00060911C0270911D024AE050E086E295E0DE
:100CB0000E94941F68E272E086E295E00E94CC1EDA
:100CC000C3EAD4E0699179914AE050E086E295E088
:100CD0000E94A71F84E0C73BD807A1F768E272E033
:100CE00086E295E00E94CC1EB80186E295E00E9463
:100CF000CC1E68E272E086E295E00E94CC1E63E2C0
:100D000086E295E0DF91CF911F910F910C94E61E42
:100D10000F931F93CF93DF938C0164E286E295E0FB
:100D20000E94CD1E68E272E086E295E00E94CC1E31
:100D300060911C0270911D024AE050E086E295E04D
:100D40000E94941F68E272E086E295E00E94CC1E49
:100D5000C3EAD4E0699179914AE050E086E295E0F7
:100D60000E94A71F84E0C73BD807A1F768E272E0A2
:100D700086E295E00E94CC1EB80186E295E00E94D2
:100D8000A71E68E272E086E295E00E94CC1E63E254
:100D900086E295E0DF91CF911F910F910C94E61EB2
:100DA000FF920F931F93CF93DF93F82E0E941A1C8C
:100DB000EC018130910519F0C0E0D0E010C00AE0EC
:100DC00010E08F2D0E941A1C892BB1F365E070E0B2
:100DD00080E090E00E94A01A0150110991F7CE0125
:100DE000DF91CF911F910F91FF9008958BE090E0DC
:100DF000D7DF892B89F486E090E0D2DF892B71F46C
:100E000088E090E0CDDF892B59F46AE070E080E063
:100E100090E00E94A01AEACF8BE0089586E0089542
:100E200088E008950F931F936091E1037091E203AE
:100E30008091E3039091E4030091E5031091E603B0
:100E40002091E7033091E803601B710B820B930B39
:100E500020E831E541E050E00E940422CA01B901D6
:100E600027E030E040E050E00E940422862F1F91EE
:100E70000F9108950F931F936091E1037091E20326
:100E80008091E3039091E4030091E5031091E60360
:100E90002091E7033091E803601B710B820B930BE9
:100EA00020E13EE040E050E00E940422CA01B90186
:100EB00028E130E040E050E00E940422862F1F919C
:100EC0000F910895CF92DF92EF92FF926091E1032C
:100ED0007091E2038091E3039091E403C090E503F5
:100EE000D090E603E090E703F090E8036C197D09E9
:100EF0008E099F092CE3C22ED12CE12CF12CA701E5
:100F000096010E940422CA01B901A70196010E941C
:100F10000422862FFF90EF90DF90CF900895CF921C
:100F2000DF92EF92FF920F931F93CF93DF93009185
:100F3000F803F090F903D0911C0210911D02C2DF5A
:100F4000C82F98DFFF920F931F93DF931F92CF93C9
:100F50001F928F938AE292E09F938F9381E392E0B6
:100F60009F938F938CEF93E09F938F930E94E12246
:100F70003CEFC32E33E0D32E4FE1E42E00E02FE10F
:100F800042E060E080E05ADE8DB79EB70E960FB665
:100F9000F8949EBF0FBE8DBFDF91CF911F910F912F
:100FA000FF90EF90DF90CF9008958091C004882348
:100FB00031F08091C1049091C2040E94FE16AFCF1F
:100FC000AF92BF92CF92DF92EF920F93CF93DF93C6
:100FD0001F921F92CDB7DEB76C015B012A83498354
:100FE000E4DFE02E2A81022F4981242F42E062E0D3
:100FF00080E002DEB501882777FD8095982F0F905D
:101000000F90DF91CF910F91EF90DF90CF90BF9035
:10101000AF900C94A01A0F93CF93DF93EC0100E0F4
:101020002FE34FE160E375E7CBDF61E070E0CE01D5
:10103000DF91CF910F916CCECF93DF93F3DED82F5A
:1010400019DFC82FE1E0D53008F4E0E0D43021F01A
:10105000D63021F0DE2F03C0D1E001C0D0E0F0E0B7
:10106000E456FB4F458DC41750F450E04C1B51091A
:101070008CE3849F9001859F300D11241EC0878DC5
:10108000C817C8F01FDF482FED2FF0E0E456FB4FE4
:10109000258D822F90E08C1B9109489668E170E0C5
:1010A0000E94F1215CE3589F9001599F300D11245B
:1010B000241B310902C02FEF3FEFC901DF91CF910F
:1010C00008950F931F93CF93DF938C01C0E0D0E07E
:1010D000C017D10744F468EE73E080E090E00E940E
:1010E000A01A2196F5CFDF91CF911F910F9108950E
:1010F000EF92FF920F931F93CF93DF937C018B01AD
:10110000C0E0D0E0BE016E0D7F1DC132D10549F0B7
:1011100083EC94E00E94E914F80181938F012196F9
:10112000F1CF81E290E0DF91CF911F910F91FF907D
:10113000EF900895EF92FF920F931F93CF93DF9359
:101140007C018B01C0E0D0E0BE016E0D7F1DC1327D
:10115000D10549F0F80141918F0183EC94E00E94A0
:10116000EC142196F1CF81E290E0DF91CF911F91B5
:101170000F91FF90EF9008954F925F926F927F9240
:101180008F929F92AF92BF92CF92DF92EF92FF9297
:101190000F931F93CF93DF931F921F92CDB7DEB7AC
:1011A00088E10FB6F89480936000109260000FBE43
:1011B00060E083E00E94AC1B60E08BE00E94AC1B0F
:1011C00060E086E00E94AC1B62E088E00E94AC1BFD
:1011D00061E089E00E94AC1B61E085E00E94AC1BED
:1011E00061E08CE00E94AC1B61E087E00E94AC1BD8
:1011F00061E08DE00E94AC1BF89448EE53E060E0A3
:1012000070E088E095E00E945C160FEF1FEF9801F8
:1012100040E050E069E088E095E00E948816109276
:10122000B0001092B1001092B20089EF8093B30029
:101230008091B00082608093B0008091B1008260A4
:101240008093B100809170008260809370007894E8
:101250000091C1041091C20460E875E2CE010196CC
:101260000E94D61689819A81F801918380836CE966
:1012700074E080E090E03CDF80919C0490919D04BC
:1012800097FD1FC28BE090E08BDD892B09F019C21E
:101290008091A00480930B028091A10480930A02A4
:1012A0008091A2048093DE038091A3049091A40412
:1012B00097FD5EC080910B02873008F086E0809336
:1012C0000B02E0910A02E83108F0E7E1E0930A023C
:1012D000A091DE03AD3308F0ACE3A093DE03F0E0B1
:1012E00098E1899FE00DF11D1124B0E024EC3FEF5F
:1012F0004FEF5FEF0E9463226B017C018091E1035D
:101300009091E203A091E303B091E403C80ED91ECB
:10131000EA1EFB1E9F01A0EFB1EF0E944822C60EFD
:10132000D71EE81EF91EC092E503D092E603E092B4
:10133000E703F092E8038091C0048823A9F161E0FB
:1013400070E08091C1049091C2040E94411761E055
:1013500070E08091C1049091C2040E940D1700E0DA
:101360002FE340E068E873E18AEA92E029DE1CC0DE
:1013700086E00E94341B8C010E947D1AC801860FF2
:10138000971F0E94AC1F03EA14E06FE077E280E051
:1013900090E00E94B31FF801619371938F01F4E014
:1013A000073B1F0791F786CF88E00E941A1C892B04
:1013B00019F481E08093BF046CE974E080E090E070
:1013C000B9DE80E090E0A2D8B5D960932302709393
:1013D0002402809325029093260280E094E096D820
:1013E000A9D96B017C0140E050E068E271E44093D0
:1013F000900450939104609392047093930480E05E
:1014000090E0A0E6B1E480938C0490938D04A093C7
:101410008E04B0938F0480E090E0A0EFB0E480935E
:10142000880490938904A0938A04B0938B0440931A
:10143000840450938504609386047093870440E08D
:1014400050E060E970E4409380045093810460931D
:1014500082047093830480937C0490937D04A09312
:101460007E04B0937F0480E090E0A0ECBFE3809323
:10147000780490937904A0937A04B0937B0440930A
:10148000740450937504609376047093770440E07D
:1014900050E060EC7FEB40937004509371046093D4
:1014A00072047093730480936C0490936D04A09302
:1014B0006E04B0936F0480E090E0A0E6B1EC8093FE
:1014C000680490936904A0936A04B0936B0480E06D
:1014D00090E0A0E2B1EC8093640490936504A09343
:1014E0006604B093670420E030E048E251E4C701AD
:1014F000B6010E948A2118160CF076C020E030E078
:1015000040E451E4C701B6010E943F206B017C0119
:1015100020E030E048E251E40E948E214B015C0162
:101520006093900470939104809392049093930439
:1015300020E030E040E651E4C701B6010E948E2170
:1015400060938C0470938D0480938E0490938F0429
:1015500020E030E040EF50E4C701B6010E948E2148
:101560002B013C01609388047093890480938A0462
:1015700090938B048092840490928504A0928604B8
:10158000B092870420E030E040E950E4C701B601A2
:101590000E948E214B015C01609380047093810452
:1015A000809382049093830440927C0450927D0443
:1015B00060927E0470927F0420E030E040EC5FE3B4
:1015C000C701B6010E948E2160937804709379045C
:1015D00080937A0490937B048092740490927504B3
:1015E000A0927604B092770410929404109295041D
:1015F00010929604109297040E94720261E08CE0AF
:101600000E94E51B64E670E080E090E00E94A01A72
:101610008091FB03813031F46EE170E08DE792E060
:10162000FADCFFCF60E087E00E94E51B81E00E94CA
:10163000820264EF71E080E090E00E94A01AEAD993
:1016400060935C0470935D0480935E0490935F04E8
:1016500060E08CE00E94E51B80E00E9482020E9414
:10166000720243E050E060E972E081E00E942E18CF
:1016700082E290E09093BE048093BD0429E288E169
:1016800090E00FB6F894A895809360000FBE209369
:1016900060008BDC80E094E00E9486020F900F9047
:1016A000DF91CF911F910F91FF90EF90DF90CF903E
:1016B000BF90AF909F908F907F906F905F904F9072
:1016C000089510929C0410929D0410929E04109212
:1016D0009F041092BA041092B90488E18093BB046D
:1016E0008093BC0480910B028093A00480910A0235
:1016F0008093A1048091DE038093A2048EE1809305
:10170000B7048FE08093B804CFCD2F923F924F92D1
:101710005F926F927F928F929F92AF92BF92CF9281
:10172000DF92EF92FF920F931F93CF93DF93512C91
:1017300083E6FF24FA94C4E1D4E039E6232E32E0B4
:10174000332E4FE6842E42E0942E5CE7652E52E065
:10175000752EF81619F029DC1FEF02C047DB182F91
:1017600064E0F61609F4D4C26F15C8F181E0F816EA
:1017700009F4AAC0F81608F4E4C392E0F91609F4D3
:101780003BC1A3E0FA12C2C34DDB80930B0272DBB4
:1017900080930A0297DB8093DE0300E02FE340E0B2
:1017A00062E370E08CE791E00BDCE0910B02F0E08B
:1017B000EE0FFF1FE45FFD4FA080B180C12C3FE121
:1017C000E32E0FE122E030E046E050E060E070E020
:1017D0008091C1049091C2040E94D01773C1B2E4F9
:1017E000FB1609F41DC3BF1528F0E1E4FE1609F449
:1017F000DEC28CC3F3E4FF1609F44BC36FEFF6129D
:1018000085C31B3021F4552069F05A9403C0183069
:1018100009F4539484E0851510F0511005C0512C43
:101820000FE303C054E0552E0FE121EDC22E21E05D
:10183000D22EE12C20E042E062E080E0DDD991E0B0
:10184000591202C00FE301C00FE195ECC92E91E0DF
:10185000D92EE12C20E042E063E080E0CDD9A2E087
:101860005A1202C00FE301C00FE18CEBC82E81E0D9
:10187000D82EE12C20E042E064E080E0BDD9B3E066
:101880005B1202C00FE301C00FE1B2EBCB2EB1E05F
:10189000DB2EE12C20E042E065E080E0ADD9E4E021
:1018A0005E1202C00FE301C00FE1A2EACA2EA1E05E
:1018B000DA2EE12C20E042E066E080E09DD916308F
:1018C00009F028C3152D2DC31B3079F420E030E03A
:1018D00040E85FE360911F02709120028091210235
:1018E000909122020E94D71F10C01830B1F420E05E
:1018F00030E040E85FE360911F0270912002809128
:101900002102909122020E94D61F60931F027093C1
:101910002002809321029093220260915C047091D6
:101920005D0480915E0490915F040E94A7207F93E4
:101930006F93A7E4B2E0BF93AF93DF93CF930E947E
:10194000E122E4E1CE2EE4E0DE2EFFE1EF2E0FE314
:101950002FE142E062E080E071D960911F02709156
:10196000200280912102909122020E94A7207F9361
:101970006F938EE592E09F938F93DF93CF930E94B6
:10198000E122E12C2FE142E065E080E057D9ADB7DC
:10199000BEB71C960FB6F894BEBF0FBEADBF1630D3
:1019A00009F0B6C220E030E040EF52E460915C0400
:1019B00070915D0480915E0490915F040E943B20D1
:1019C00081110DC060911F0270912002809121024F
:1019D000909122020E94AC206093B80491C2609161
:1019E0001F027091200280912102909122020E9498
:1019F000AC206093B70484C263EAA62E64E0B62EDE
:101A000072E0472EF50183818F9382818F938181CC
:101A10008F9380818F933F922F92DF93CF930E9479
:101A2000E12244E1C42E44E0D42E5FE1E52E0FE331
:101A30002FE141E0642D80E001D984E0A80EB11CC3
:101A40004394ADB7BEB718960FB6F894BEBF0FBE9D
:101A5000ADBFB7E04B12D6CF163009F45BC212E02F
:101A600060C280910B028F5F873090F580930B02EC
:101A7000E0910B02F0E0EE0FFF1FE45FFD4FA0804E
:101A8000B180C12C9FE1E92E0FE122E030E046E079
:101A900050E060E070E08091C1049091C2040E9427
:101AA000D01764E670E080E090E00E94A01A86E023
:101AB00090E076D9892B79F462E370E080E090E0E1
:101AC0000E94A01A8BE090E06BD9892B81F3C9CFDB
:101AD00010920B02CDCF86E090E062D9892BD9F726
:101AE00000E02FE340E062E370E085E591E068DA32
:101AF00080910A021F928F939F928F92DF93CF93D0
:101B00000E94E12214E1A12E14E0B12EC12C0FE1BC
:101B1000E02E0FE122E030E047E050E060E070E0CE
:101B20008091C1049091C2040E94D0170F900F9031
:101B30000F900F900F900F908BE090E031D9892B90
:101B4000A1F180910A028F5F883118F480930A0214
:101B500002C010920A0280910A021F928F939F92F4
:101B60008F92DF93CF930E94E122A4E1AA2EA4E0FA
:101B7000BA2EC12CBFE1EB2E0FE122E030E047E0AE
:101B800050E060E070E08091C1049091C2040E9436
:101B9000D01764E670E080E090E00E94A01A0F90F9
:101BA0000F900F900F900F900F9086E090E0F8D874
:101BB000892B31F086E090E0F3D8892BD9F707C064
:101BC00062E370E080E090E00E94A01AB5CF8091BF
:101BD000DE031F928F937F926F92DF93CF930E94C9
:101BE000E122E4E1AE2EE4E0BE2EC12CFFE1EF2EB7
:101BF0000FE122E030E047E050E060E070E08091EB
:101C0000C1049091C2040E94D0170F900F900F90C2
:101C10000F900F900F908BE090E0C2D8892BA1F12C
:101C20008091DE038F5F8C3318F48093DE0302C053
:101C30001092DE038091DE031F928F937F926F924A
:101C4000DF93CF930E94E12264E1A62E64E0B62EDA
:101C5000C12C7FE1E72E0FE122E030E047E050E0C9
:101C600060E070E08091C1049091C2040E94D0179E
:101C700064E670E080E090E00E94A01A0F900F9060
:101C80000F900F900F900F9086E090E089D8892BED
:101C900039F462E370E080E090E00E94A01ABBCFCC
:101CA000E0910B0250910A02252F30E0F8E1EF9FFE
:101CB000200D311D11244091DE036CE3469FC001CD
:101CC0001124AA2797FDA095BA2FA090E103B09008
:101CD000E203C090E303D090E403A81AB90ACA0A49
:101CE000DB0AA0EFB1EF0E944822A60EB71EC81E65
:101CF000D91EA092E503B092E603C092E703D0920A
:101D0000E803E093A0045093A1044093A204F8C018
:101D100034E3A32E31E0B32E4FE1C42E5FE3E52E72
:101D20000FE122E030E046E050E060E070E08091BA
:101D3000C1049091C2040E94FF178091B9041B3026
:101D400021F4873148F48F5F05C0183029F48823C7
:101D500019F081508093B9048091B9041F928F9338
:101D6000ABE8B2E0BF93AF93DF93CF930E94E12241
:101D700094E1A92E94E0B92EC12C2FE3E22E00E0CD
:101D800022E030E042E050E060E070E08091C10489
:101D90009091C2040E94D0170F900F900F900F9057
:101DA0000F900F90163009F4B7C014E0BAC08091BC
:101DB000BB041B3021F4883148F48F5F05C0183014
:101DC00029F4882319F081508093BB048091BB04CF
:101DD0001F928F93ACEAB2E0BF93AF93DF93CF93A0
:101DE0000E94E12204E1A02E04E0B02EC12C8FE37A
:101DF000E82E00E022E030E042E050E060E070E0F9
:101E00008091C1049091C2040E94D0170F900F904E
:101E10000F900F900F900F90163009F07DC07EC08C
:101E20008091BA041B3021F4873148F48F5F05C0DC
:101E3000183029F4882319F081508093BA048091D6
:101E4000BA041F928F93ABECB2E0BF93AF93DF93D2
:101E5000CF930E94E122A4E1AA2EA4E0BA2EC12CC5
:101E6000BFE3EB2E00E022E030E042E050E060E033
:101E700070E08091C1049091C2040E94D0170F902D
:101E80000F900F900F900F900F90163009F046C0F2
:101E900047C08091BC041B3021F4883148F48F5F27
:101EA00005C0183029F4882319F081508093BC04B0
:101EB0008091BC041F928F93ABEEB2E0BF93AF93BF
:101EC000DF93CF930E94E122E4E1AE2EE4E0BE2E48
:101ED000C12CFFE3EF2E00E022E030E042E050E0D2
:101EE00060E070E08091C1049091C2040E94D0171C
:101EF0000F900F900F900F900F900F90163081F46D
:101F00006CE974E080E090E015D904C01F2D09C091
:101F100011E007C01FEF05C011E403C012E401C0C7
:101F200013E466E1C62E61E0D62E7FE1E72E00E0E5
:101F300020E042E069E080E00E94FC058F2DF12E58
:101F400008CCDF91CF911F910F91FF90EF90DF9020
:101F5000CF90BF90AF909F908F907F906F905F9049
:101F60004F903F902F9008952F923F924F925F9203
:101F70006F927F928F929F92AF92BF92CF92DF9299
:101F8000EF92FF920F93CF93DF9380911C02909179
:101F90001D0290931B0280931A020E94F1039093FA
:101FA0001D0280931C0220911A0230911B0282179D
:101FB000930709F46BC00E94D5070E94711A6093C1
:101FC000F1037093F2038093F3039093F40360930F
:101FD000ED037093EE038093EF039093F0038091F1
:101FE0001C0290911D020297E1F480E092E00E94B1
:101FF00086020E949A0320E030E040EC5FEB0E94F2
:102000008A21181634F485E090E090931D028093A5
:102010001C0210925404109255041092560410920F
:10202000570480911A0290911B02029779F56091F2
:102030009C0470919D0480919E0490919F040E9445
:10204000D820209154043091550440915604509169
:1020500057040E94D71F0E94AC2060939C04709389
:102060009D0480939E0490939F040E941207809386
:10207000A0040E943A078093A1040E946207809303
:10208000A2046CE974E080E090E054D880911C02D6
:1020900090911D02892B39F480E00E94820280E039
:1020A00094E00E94860280911C0290911D0201978B
:1020B00009F040C080E00E9482020E941C089093B8
:1020C000F6038093F503181619060CF04EC486E04B
:1020D00090E00E94D006892B09F047C48091BF048C
:1020E000882309F442C48091F6038F938091F5030D
:1020F0008F938EE993E09F938F9384E194E09F9375
:102100008F930E94E122E4E1CE2EE4E0DE2EFFE197
:10211000EF2E0FE32FE141E06CE080E00E941E060D
:1021200080E094E00E9486020F900F900F900F9035
:102130000F900F9080911C0290911D02029709F060
:102140002EC20E94CD0280916204909163040E948D
:10215000860281E00E9482020E9485054B015C019B
:1021600020915C0430915D0440915E0450915F04C5
:102170000E948E2120E030E04AE754E40E943F2094
:10218000609358047093590480935A0490935B04AD
:102190000E94711A2091F1033091F203621B730BBC
:1021A0007093E0036093DF030E94711A6093F10360
:1021B0007093F2038093F3039093F4036091DF0331
:1021C0007091E00380E090E00E94D82020915804B4
:1021D0003091590440915A0450915B040E948E2121
:1021E00020E030E04AE754E40E943F2020E030E065
:1021F00041E655E40E943F209B01AC0160915404EC
:102200007091550480915604909157040E94D71FF5
:10221000609354047093550480935604909357042C
:102220000E948F07C0905804D0905904E0905A043F
:10223000F0905B0420E030E040E251E4C701B601D9
:102240000E948E210E94A720EAE02E2E312CCB0185
:10225000B1010E94F1219F938F93C701B6010E94A3
:10226000A7207F936F9389E093E09F938F93C4E1BE
:10227000D4E0DF93CF930E94E1226E01E12C0FE3C3
:102280002FE142E062E080E00E941E066091F103CF
:102290007091F2038091F3039091F403C090ED03E9
:1022A000D090EE03E090EF03F090F0036C197D09FD
:1022B0008E099F0928EE33E040E050E00E9404229E
:1022C000C9016CE370E00E94F1217F936F938DE16F
:1022D00093E09F938F93DF93CF930E94E1226E014F
:1022E000E12C2FE142E063E080E00E941E06C090F6
:1022F0005404D0905504E0905604F090570420E028
:1023000030E040E05EE3C701B6010E948E212B0160
:102310003C0120E030E048EC52E40E948E210E9413
:10232000A720CB0164E670E00E94F1219F938F9378
:10233000C301B2010E94A7207F936F9320E030E099
:1023400040E251E4C701B6010E948E210E94A720FD
:10235000CB01B1010E94F1219F938F93C701B60178
:102360000E94A7207F936F938CE293E09F938F93BB
:10237000DF93CF930E94E1226E01E12C2FE142E036
:1023800065E080E00E941E0660911F0270912002AD
:1023900080912102909122020E94A7207F936F9347
:1023A000C501B4010E94A7207F936F9360915C04E4
:1023B00070915D0480915E0490915F040E94A7205B
:1023C0007F936F9384E493E09F938F93DF93CF93F6
:1023D0000E94E1222DB73EB72C5D3F4F0FB6F89417
:1023E0003EBF0FBE2DBF2FE142E067E080E00E94BC
:1023F0001E06F5E5CF2EF2E0DF2EAFE1EA2E00E07B
:1024000020E042E069E080E00E94FC058BE090E083
:102410000E94D006892BD1F08091BF048823B1F0AF
:1024200020E030E040E253E460915C0470915D0490
:1024300080915E0490915F040E948A2118160CF02E
:10244000AAC28091B7048F5F8093B70488E090E0C0
:102450000E94D006892BD1F08091BF048823B1F06F
:1024600020E030E040E253E460915C0470915D0450
:1024700080915E0490915F040E948A2118160CF0EE
:1024800090C28091B70481508093B7048091E1039A
:102490009091E203A091E303B091E4034091E9033A
:1024A0005091EA036091EB037091EC039C01241BB3
:1024B000350B2B3031052CF4452B462B472B09F0DF
:1024C0006EC08093E9039093EA03A093EB03B0936B
:1024D000EC03C0905404D0905504E0905604F09062
:1024E000570420E030E040E251E4609158047091DC
:1024F000590480915A0490915B040E948E210E949D
:10250000A7207F936F9320E030E040E251E4C501C3
:10251000B4010E948E210E94A7207F936F9320E038
:1025200030E040E251E4C701B6010E948E210E94D2
:10253000A7207F936F9360919C0470919D0480917C
:102540009E0490919F040E94D820A70196010E94AA
:10255000D71F0E94A7207F936F9360915C047091B6
:102560005D0480915E0490915F040E94A7207F9398
:102570006F9383E593E09F938F9384E194E09F931F
:102580008F930E94E12284E194E00E9440068DB77F
:102590009EB70E960FB6F8949EBF0FBE8DBF80916A
:1025A0001C0290911D02039719F480E00E948202A0
:1025B00080911C0290911D029C012450310922300F
:1025C000310518F08F3F910519F480E00E948202D6
:1025D00080911C0290911D02029709F45AC16CE986
:1025E00074E080E090E00E9478080E94CD02A09103
:1025F000BD04B091BE0420919C0430919D04409193
:102600009E0450919F040E946D2224E630E040E039
:1026100050E00E940422922E832E0E948F07809108
:10262000C004882309F4E3C080911C0290911D022C
:10263000892B31F58091F703813051F020F0823001
:10264000D1F41092F7035AE4A52E52E0B52E04C03F
:102650004FE3A42E42E0B42EC12C3FE3E32E0FE162
:1026600022E030E042E050E060E070E08091C104A0
:102670009091C204C4D48091F7038F5F8093F703D5
:1026800080919D048F9380919C048F9382E693E0C8
:102690009F938F93C4E1D4E0DF93CF930E94E12214
:1026A0005E01AFE1CA2EBFE3EB2E00E022E030E096
:1026B00044E050E060E070E08091C1049091C20479
:1026C0006FD48F929F928FE693E09F938F93DF93C7
:1026D000CF930E94E12222E030E045E050E060E04C
:1026E00070E08091C1049091C2045AD4C090540407
:1026F000D0905504E0905604F090570420E030E06C
:1027000040E251E4C701B6010E948E210E94A72039
:10271000CB016AE070E00E94F1219F938F93C70183
:10272000B6010E94A7207F936F938AE793E09F935F
:102730008F93DF93CF930E94E1220FE1C02EE12C13
:102740000FE122E030E047E050E060E070E080918F
:10275000C1049091C20424D460911F0270912002A0
:1027600080912102909122020E94A7207F936F9373
:1027700060915C0470915D0480915E0490915F04AF
:102780000E94A7207F936F938CE893E09F938F9391
:10279000DF93CF930E94E1228FE3E82E22E030E026
:1027A00048E050E060E070E08091C1049091C20484
:1027B000F7D392E2C92E92E0D92E2FE1E22E00E06B
:1027C00020E042E06AE080E00E94FC058BE090E0BF
:1027D0000E94D0062DB73EB7245E3F4F0FB6F89447
:1027E0003EBF0FBE2DBF892B11F00E94850B80913B
:1027F000E1039091E203A091E303B091E4034091DF
:10280000E9035091EA036091EB037091EC039C01A2
:10281000241B350B2B30310524F4452B462B472B3D
:10282000C1F58093E9039093EA03A093EB03B0937F
:10283000EC038F929F9280919F048F9380919E04CE
:102840008F9380919D048F9380919C048F936091CE
:102850005C0470915D0480915E0490915F040E941D
:10286000A7207F936F9389E593E09F938F9384E1F3
:1028700094E09F938F930E94E12284E194E00E9470
:1028800040068DB79EB70C960FB6F8949EBF0FBE4C
:102890008DBF64E670E080E090E052D68091FB034B
:1028A000882329F100E02FE34FE16CE271E08FEF24
:1028B00091E00E94E0078091FA038F5F8093FA0312
:1028C000853078F02FE34FE168EE73E086ED91E01C
:1028D0000E94E0070E94F103892BE1F71092FA03AE
:1028E00006C084E893E00E9461080E9472020E9480
:1028F000CC059093F9038093F8038B35910584F010
:1029000080E094E00E94860268EE73E080E090E050
:1029100017D680E00E94820288E592E00E9461085A
:102920008091F8039091F9038C3E9F4F1CF461E075
:102930008DE04BD78091F8039091F903873F9F4F2B
:10294000B4F160E08DE0DF91CF910F91FF90EF90B7
:10295000DF90CF90BF90AF909F908F907F906F90BF
:102960005F904F903F902F9030C76DE6C62E62E08B
:10297000D62E7FE1E72E0FE32FE141E06CE080E00F
:102980000E94FC050E94CD02809162049091630434
:102990000E948602CFCB8091B8048F5F8093B804E9
:1029A00055CD8091B80481508093B8046FCDDF91EC
:1029B000CF910F91FF90EF90DF90CF90BF90AF90AD
:1029C0009F908F907F906F905F904F903F902F904F
:1029D0000895CB010C94FD24CB01642F0C940525A4
:1029E00020E001972FEF8F3F9207D9F70895EF92DC
:1029F000FF920F931F93CF93DF93EC018B8DEE85A6
:102A0000FF859D8581FF04C08081892329F442C010
:102A10008081892309F03EC08B899C89E1DF08E031
:102A200010E0EE24E394F12C8D899E89D9DFEE85A8
:102A3000FF8580819D85892311F0FE2803C08E2D9E
:102A40008095F822EE0C0150110971F78F89988D4D
:102A5000C7DF8B8D81FDF0948091C5042091C40463
:102A600090E001968F73992730E08217930779F0F1
:102A7000E091C504F0E0EA53FB4FF0828091C50479
:102A800090E001968F7399278093C50403C08B8DC6
:102A900081608B8FDF91CF911F910F91FF90EF900D
:102AA00008958091060590910705009709F09FCF42
:102AB00008951F920F920FB60F9211240BB60F922A
:102AC0002F933F934F935F936F937F938F939F9336
:102AD000AF93BF93EF93FF93E4DFFF91EF91BF912B
:102AE000AF919F918F917F916F915F914F913F91A6
:102AF0002F910F900BBE0F900FBE0F901F90189547
:102B00001F920F920FB60F9211240BB60F922F93B4
:102B10003F934F935F936F937F938F939F93AF9365
:102B2000BF93EF93FF93BDDFFF91EF91BF91AF9103
:102B30009F918F917F916F915F914F913F912F91D5
:102B40000F900BBE0F900FBE0F901F9018951F9205
:102B50000F920FB60F9211240BB60F922F933F9343
:102B60004F935F936F937F938F939F93AF93BF9395
:102B7000EF93FF9396DFFF91EF91BF91AF919F91FC
:102B80008F917F916F915F914F913F912F910F9016
:102B90000BBE0F900FBE0F901F9018951F920F92B3
:102BA0000FB60F9211240BB60F922F933F934F93B2
:102BB0005F936F937F938F939F93AF93BF93EF93A5
:102BC000FF93E0910B05F0910C051995FF91EF91A2
:102BD000BF91AF919F918F917F916F915F914F9135
:102BE0003F912F910F900BBE0F900FBE0F901F9033
:102BF0001895FC01A3E0440F551F661F771FAA9587
:102C0000D1F74115510581E06807710514F481E0A1
:102C10000EC033E075956795579547953A95D1F76E
:102C20004115510581E0680771051CF482E082833B
:102C300031C023E075956795579547952A95D1F74B
:102C40004115510581E06807710514F483E0EFCF69
:102C500092E075956795579547959A95D1F74115E7
:102C6000510581E06807710514F484E0E0CF82E04B
:102C700075956795579547958A95D1F785E0828335
:102C80004115510581E06807710524F04FEF5FEFB2
:102C900060E070E05183408350938700409386004A
:102CA00080918100887F8093810080918100928152
:102CB000892B8093810008951092800020E1209359
:102CC000810097CFE62FDC012D913C91DA010E9423
:102CD0005D22BAE09695879577956795BA95D1F775
:102CE000E77FE13029F470938900609388000895AC
:102CF000E23021F470938B0060938A000895E1E83C
:102D0000F0E02081DC0112968C91282B208308951D
:102D1000DF92EF92FF920F931F93CF93DF93EC011B
:102D2000D62E7A0110161106120613061CF4B901EC
:102D3000A8015FDF8D2D877F813029F4219A809152
:102D40008000806806C0823031F4229A8091800031
:102D5000806280938000A7016D2DCE01B3DFCE018C
:102D6000DF91CF911F910F91FF90EF90DF90C7CF30
:102D70000F931F93CF93DF93C8ECD0E086E295E0EA
:102D80009AD58C0165E070E080E090E0D9D3063000
:102D9000110529F0219791F780E090E002C081E0D1
:102DA00090E0DF91CF911F910F9108950F931F93A2
:102DB000CF93DF93EC018B0186E295E0EDD568EBD4
:102DC0007BE080E090E0BCD3A801662757FD6095CA
:102DD000762F26E086E295E064D66FEF86E295E0F6
:102DE000DCD767ED86E295E0D8D7CE01C1DF9983C5
:102DF0008883DF91CF911F910F910895CF93DF9337
:102E0000EC016FEF86E295E0C8D767ED86E295E0CA
:102E1000C4D7CE01DF91CF91ABCF1F93CF93DF9378
:102E2000EC01162F6FEF86E295E0B7D768E686E2F1
:102E300095E0B3D760E086E295E0AFD7612F86E2F8
:102E400095E0ABD7CE01DF91CF911F9191CF1F932A
:102E5000CF93DF93EC01162F6FEF86E295E09DD7BD
:102E600069E786E295E099D760E086E295E095D73C
:102E7000612F86E295E091D7CE01DF91CF911F912E
:102E800077CF1F93CF93DF93EC01162F6FEF86E27E
:102E900095E083D767E786E295E07FD760E086E23A
:102EA00095E07BD7612F86E295E077D7CE01DF9161
:102EB000CF911F915DCFEF92FF921F93CF93DF933E
:102EC0001F92CDB7DEB77C01162F6FEF86E295E03B
:102ED000498363D764EE86E295E05FD760E086E2DF
:102EE00095E05BD74981642F86E295E056D760E094
:102EF00086E295E052D7612F86E295E04ED7C70172
:102F00000F90DF91CF911F91FF90EF9031CFEF9213
:102F1000FF920F931F93CF93DF931F92CDB7DEB72E
:102F20007C01062F142F6FEF86E295E0298335D7B9
:102F30006FE786E295E031D7612F669566956695D5
:102F400088E0089F600D112486E295E026D729814C
:102F5000622FE0E21E9F600D112486E295E01DD7EE
:102F6000C7010F90DF91CF911F910F91FF90EF90CC
:102F7000FFCECF93DF93EC016FEF86E295E00DD7A4
:102F80006DE786E295E009D760E086E295E005D737
:102F900060E086E295E001D7CE01DF91CF91E8CEE7
:102FA000AF92BF92CF92EF920F93CF93DF93EC014A
:102FB00082DF60E070E0CE01DCDF2C2D4E2D602F33
:102FC000CE01A5DF62E070E0CE0141DF60E086E285
:102FD00095E0E3D666E086E295E0DFD6B50186E2CD
:102FE00095E0DAD660E086E295E0D7D6CE01DF91B3
:102FF000CF910F91EF90CF90BF90AF90B9CEAF929D
:10300000BF92CF92EF920F93CF93DF93EC0153DFF8
:1030100060E070E0CE01ADDF2C2D4E2D602FCE0193
:1030200076DF62E070E0CE0112DF60E086E295E0DC
:10303000B4D666E086E295E0B0D6B50186E295E0CA
:1030400086D660E086E295E0A8D6CE01DF91CF91EA
:103050000F91EF90CF90BF90AF908ACE883008F05C
:103060006DC0E82FF0E0EE0FFF1FE35FFA4F7183B2
:10307000608390E0FC013197E730F10590F5EE5860
:10308000FF4F0C944222809169008C7F842B8093A7
:103090006900E89A089580916900440F551F440F14
:1030A000551F837F842B80936900E99A089580914E
:1030B000690074E0440F551F7A95E1F78F7C842BEB
:1030C00080936900EA9A08958091690066E0440F50
:1030D000551F6A95E1F78F73842B80936900EB9AF3
:1030E000089580916A008C7F842B80936A00EC9A0B
:1030F000089580916A00440F551F440F551F837F28
:10310000842B80936A00ED9A089580916A0024E0F0
:10311000440F551F2A95E1F78F7C842B80936A001A
:10312000EE9A089580916A0096E0440F551F9A9593
:10313000E1F78F73842B80936A00EF9A08951F92B2
:103140000F920FB60F9211240BB60F922F933F934D
:103150004F935F936F937F938F939F93AF93BF939F
:10316000EF93FF938091110590911205892B29F01F
:10317000E0911105F09112051995FF91EF91BF9122
:10318000AF919F918F917F916F915F914F913F91FF
:103190002F910F900BBE0F900FBE0F901F901895A0
:1031A0001F920F920FB60F9211240BB60F922F930E
:1031B0003F934F935F936F937F938F939F93AF93BF
:1031C000BF93EF93FF938091130590911405892B82
:1031D00029F0E0911305F09114051995FF91EF91F5
:1031E000BF91AF919F918F917F916F915F914F911F
:1031F0003F912F910F900BBE0F900FBE0F901F901D
:1032000018951F920F920FB60F9211240BB60F92C2
:103210002F933F934F935F936F937F938F939F93DE
:10322000AF93BF93EF93FF9380911505909116058F
:10323000892B29F0E0911505F09116051995FF915C
:10324000EF91BF91AF919F918F917F916F915F911E
:103250004F913F912F910F900BBE0F900FBE0F908B
:103260001F9018951F920F920FB60F9211240BB654
:103270000F922F933F934F935F936F937F938F930F
:103280009F93AF93BF93EF93FF9380911705909116
:103290001805892B29F0E0911705F091180519956B
:1032A000FF91EF91BF91AF919F918F917F916F911E
:1032B0005F914F913F912F910F900BBE0F900FBEDA
:1032C0000F901F9018951F920F920FB60F92112416
:1032D0000BB60F922F933F934F935F936F937F9310
:1032E0008F939F93AF93BF93EF93FF9380910D05BF
:1032F00090910E05892B29F0E0910D05F0910E05B6
:103300001995FF91EF91BF91AF919F918F917F910F
:103310006F915F914F913F912F910F900BBE0F9046
:103320000FBE0F901F9018951F920F920FB60F921D
:1033300011240BB60F922F933F934F935F936F938C
:103340007F938F939F93AF93BF93EF93FF9380915E
:103350000F0590911005892B29F0E0910F05F09150
:1033600010051995FF91EF91BF91AF919F918F91AA
:103370007F916F915F914F913F912F910F900BBE75
:103380000F900FBE0F901F9018951F920F920FB6BF
:103390000F9211240BB60F922F933F934F935F938D
:1033A0006F937F938F939F93AF93BF93EF93FF930D
:1033B0008091190590911A05892B29F0E091190542
:1033C000F0911A051995FF91EF91BF91AF919F91DF
:1033D0008F917F916F915F914F913F912F910F90BE
:1033E0000BBE0F900FBE0F901F9018951F920F925B
:1033F0000FB60F9211240BB60F922F933F934F935A
:103400005F936F937F938F939F93AF93BF93EF934C
:10341000FF9380911B0590911C05892B29F0E09169
:103420001B05F0911C051995FF91EF91BF91AF918C
:103430009F918F917F916F915F914F913F912F91CC
:103440000F900BBE0F900FBE0F901F9018951F92FC
:103450000F920FB60F9211242F933F938F939F9348
:10346000AF93BF9380911E0590911F05A0912005F9
:10347000B091210530911D0523E0230F2D3720F455
:103480000196A11DB11D05C026E8230F0296A11DBE
:10349000B11D20931D0580931E0590931F05A093D9
:1034A0002005B09321058091220590912305A091DC
:1034B0002405B09125050196A11DB11D809322051B
:1034C00090932305A0932405B0932505BF91AF9158
:1034D0009F918F913F912F910F900FBE0F901F9052
:1034E00018952FB7F89460911E0570911F05809173
:1034F0002005909121052FBF08953FB7F894809142
:10350000220590912305A0912405B091250526B5AB
:10351000A89B05C02F3F19F00196A11DB11D3FBF0B
:103520006627782F892F9A2F620F711D811D911D9B
:1035300042E0660F771F881F991F4A95D1F70895BB
:10354000CF92DF92EF92FF92CF93DF936B017C01DA
:10355000D4DFEB01C114D104E104F10479F025D5E5
:10356000CCDF6C1B7D0B683E7340A0F381E0C81A72
:10357000D108E108F108C851DC4FECCFDF91CF91C1
:10358000FF90EF90DF90CF900895019739F0880F6A
:10359000991F880F991F02970197F1F70895789462
:1035A00084B5826084BD84B5816084BD85B5826048
:1035B00085BD85B5816085BDEEE6F0E080818160E6
:1035C0008083E1E8F0E010828081826080838081E6
:1035D00081608083E0E8F0E0808181608083E1EBBE
:1035E000F0E0808184608083E0EBF0E080818160A6
:1035F0008083E1E9F0E08081826080838081816066
:103600008083E0E9F0E0808181608083E1EAF0E09E
:10361000808182608083808181608083E0EAF0E045
:10362000808181608083E1E2F1E08081826080833B
:10363000808181608083E0E2F1E08081816080832D
:10364000EAE7F0E08081846080838081826080830B
:103650008081816080838081806880831092C10036
:103660000895809327020895863308F086532091A9
:103670007B00982F9870277F922B90937B00877008
:103680002091270290E4299F90011124822B80939E
:103690007C0080917A00806480937A0080917A0027
:1036A00086FDFCCF809178002091790090E0922BEC
:1036B000089590E0FC013197E231F10508F04BC02C
:1036C000E758FF4FDFC6809180008F7703C080915D
:1036D00080008F7D80938000089580918000877F97
:1036E000F9CF84B58F7702C084B58F7D84BD0895EE
:1036F0008091B0008F7703C08091B0008F7D809360
:10370000B0000895809190008F7707C0809190005D
:103710008F7D03C080919000877F809390000895F3
:103720008091A0008F7707C08091A0008F7D03C09B
:103730008091A000877F8093A00008958091200150
:103740008F7707C0809120018F7D03C08091200179
:10375000877F809320010895CF93DF9390E0FC0151
:10376000E45EFC4F2491FC01EE59FC4F84918823C8
:1037700049F190E0880F991FFC01E452FC4FA5919C
:10378000B4918E539C4FFC01C591D4919FB76111A8
:1037900008C0F8948C91209582238C938881822391
:1037A0000AC0623051F4F8948C91322F3095832303
:1037B0008C938881822B888304C0F8948C91822B0F
:1037C0008C939FBFDF91CF9108950F931F93CF9359
:1037D000DF931F92CDB7DEB7282F30E0F901EA5210
:1037E000FD4F8491F901E45EFC4F1491F901EE590B
:1037F000FC4F04910023C1F0882319F0698359DF3D
:103800006981E02FF0E0EE0FFF1FEE53FC4FA59112
:10381000B4919FB7F8948C91611103C010958123E6
:1038200001C0812B8C939FBF0F90DF91CF911F918F
:103830000F910895CF93DF93282F30E0F901EA52DA
:10384000FD4F8491F901E45EFC4FD491F901EE59EA
:10385000FC4FC491CC2389F081112BDFEC2FF0E0D9
:10386000EE0FFF1FE855FC4FA591B4912C912D232D
:1038700081E090E021F480E002C080E090E0DF9100
:10388000CF910895FC01818D228D90E0805C9F4F47
:10389000821B910960E470E0A4C5FC01918D828DCA
:1038A000981731F0828DE80FF11D858D90E0089515
:1038B0008FEF9FEF0895FC01918D828D981761F035
:1038C000828DDF01A80FB11D5D968C91928D9F5F57
:1038D0009F73928F90E008958FEF9FEF089580E19E
:1038E0009EE1892B39F080E090E0892B19F098D186
:1038F000811125C080E090E0892B41F080E090E0CC
:10390000892B21F00E94000081111CC080E090E012
:10391000892B41F080E090E0892B21F00E9400008B
:10392000811113C080E090E0892BA1F080E090E04D
:10393000892B81F00E94000081110AC008950E9425
:103940000000D8CF0E940000E1CF0E940000EACF23
:103950000C9400000895FC01848DDF01A80FB11DB7
:10396000A35ABF4F2C91848D90E001968F739927B5
:10397000848FA689B7892C93A089B1898C918064A2
:103980008C93938D848D981306C00288F389E02D63
:1039900080818F7D80830895CF93DF93EC01888DA4
:1039A0008823C1F0EA89FB89808185FD05C0A8894B
:1039B000B9898C9186FD0EC00FB607FCF5CF8081CA
:1039C00085FFF2CFA889B9898C9185FFEDCFCE0113
:1039D000C2DFE8CFDF91CF910895CF92DF92FF92BF
:1039E0000F931F93CF93DF931F92CDB7DEB76C0178
:1039F000DC015B969C915B975C968C915C9798132D
:103A000007C05096ED91FC915197808185FD31C0A2
:103A1000F601038D10E00F5F1F4F0F731127F02E7B
:103A2000F601848DF81210C00FB607FCF9CFD6014D
:103A30005096ED91FC915197808185FFF1CFC601A1
:103A4000698389DF6981ECCF838DE80FF11DE35A2B
:103A5000FF4F6083D6015B960C935B975296ED9176
:103A6000FC91539780818062808381E058968C938B
:103A70000DC0D6015696ED91FC91579760835096F4
:103A8000ED91FC91519780818064808381E090E08A
:103A90000F90DF91CF911F910F91FF90DF90CF900A
:103AA0000895BF92CF92DF92EF92FF92CF93DF9370
:103AB000EC016A017B01B22EE889F98982E08083FA
:103AC000411581EE58076105710599F060E079E0D4
:103AD0008DE390E0A701960197D421503109410967
:103AE00051095695479537952795211580E1380757
:103AF00090F0E889F989108260E874E88EE190E03E
:103B0000A701960181D421503109410951095695E7
:103B1000479537952795EC85FD853083EE85FF85A4
:103B20002083188EEC89FD89B082EA89FB89808127
:103B300080618083EA89FB89808188608083EA894B
:103B4000FB89808180688083EA89FB8980818F7D01
:103B50008083DF91CF91FF90EF90DF90CF90BF9067
:103B600008951F920F920FB60F9211240BB60F9269
:103B70002F938F939F93EF93FF93E0913605F091EE
:103B800037058081E0913C05F0913D0582FD12C032
:103B9000908180913F058F5F8F7320914005821740
:103BA00051F0E0913F05F0E0EA5DFA4F958F809388
:103BB0003F0501C08081FF91EF919F918F912F91DF
:103BC0000F900BBE0F900FBE0F901F9018951F9275
:103BD0000F920FB60F9211240BB60F922F933F93B3
:103BE0004F935F936F937F938F939F93AF93BF9305
:103BF000EF93FF9386E295E0AEDEFF91EF91BF91E8
:103C0000AF919F918F917F916F915F914F913F9174
:103C10002F910F900BBE0F900FBE0F901F90189515
:103C200086E295E02FDE21E0892B09F420E0822F47
:103C30000895109229051092280588EE93E0A0E0DF
:103C4000B0E080932A0590932B05A0932C05B093A8
:103C50002D058EEC93E0909327058093260585EC47
:103C600090E0909333058093320584EC90E090933C
:103C700035058093340580EC90E090933705809370
:103C8000360581EC90E0909339058093380582ECFD
:103C900090E090933B0580933A0586EC90E09093FA
:103CA0003D0580933C0510923F051092400510920F
:103CB0004105109242050895089571DCFDDF0E94D0
:103CC000BC08CFE6DCE10E94B40F2097E1F307DEE9
:103CD000FACFCF92DF92EF92FF920F931F93CF9381
:103CE000DF936C017A01EB01E60EF71E00E010E0B5
:103CF000CE15DF0561F06991D601ED91FC9101903F
:103D0000F081E02DC6011995080F191FF1CFC801E8
:103D1000DF91CF911F910F91FF90EF90DF90CF90A7
:103D200008956115710581F0DB010D900020E9F720
:103D3000AD0141505109461B570BDC01ED91FC913F
:103D40000280F381E02D199480E090E00895EF92D5
:103D5000FF920F931F93CF93DF938C01FB01C0E081
:103D6000D0E064917F018FEFE81AF80A662361F0D2
:103D7000D801ED91FC910190F081E02DC8011995D9
:103D8000C80FD91FF701EDCFCE01DF91CF911F9161
:103D90000F91FF90EF900895C4CFDC01ED91FC915D
:103DA0000190F081E02D19940F931F93CF93DF932F
:103DB000EC016DE0F2DF8C016AE0CE01EEDF800FF6
:103DC000911FDF91CF911F910F9108950F931F9332
:103DD000CF93DF93EC01E1DF8C01CE01E5DF800FB3
:103DE000911FDF91CF911F910F9108958F929F9214
:103DF000AF92BF92CF92DF92EF92FF920F931F93F9
:103E0000CF93DF93CDB7DEB7A1970FB6F894DEBF9F
:103E10000FBECDBF7C01C42EE52FCB01D22E19A23F
:103E200021E02D1510F02AE0D22E8E010F5D1F4FDC
:103E30008D2C912CA12CB12C6C2D7E2FA5019401E1
:103E4000E3D28C2DD29E80191124015011098A30A1
:103E500014F4805D01C0895CF8018083211531056F
:103E60004105510521F0C22EE32FCA01E5CFB8016B
:103E7000C70157DFA1960FB6F894DEBF0FBECDBFC6
:103E8000DF91CF911F910F91FF90EF90DF90CF9036
:103E9000BF90AF909F908F900895CF92DF92EF9256
:103EA000FF920F931F93CF93DF93EC016A017B0185
:103EB0002115310579F4E881F9810190F081E02D37
:103EC000642FDF91CF911F910F91FF90EF90DF90C2
:103ED000CF9019942A303105D9F477FF18C06DE2DC
:103EE0005CDF8C0144275527BA014C195D096E0926
:103EF0007F092AE0CE017ADF800F911FDF91CF91F9
:103F00001F910F91FF90EF90DF90CF9008952AE0DE
:103F1000B701A601CE01DF91CF911F910F91FF90C4
:103F2000EF90DF90CF9062CF9A01AB01662757FDEB
:103F30006095762FB2CF2115310541F4DC01ED916A
:103F4000FC910190F081E02D642F19944FCF9A01DC
:103F5000AB0160E070E0EFCF009721F0BC0180E0A2
:103F600090E026C30895CF93DF9300D01F92CDB782
:103F7000DEB79B01AC01611571058105910559F012
:103F800069833A834B835C8310D329813A814B81C7
:103F90005C815CD203C060E070E0CB010F900F90B9
:103FA0000F900F90DF91CF91089508955058BB273F
:103FB000AA270ED075C166D130F06BD120F031F454
:103FC0009F3F11F41EF45BC10EF4E095E7FB51C175
:103FD000E92F77D180F3BA17620773078407950733
:103FE00018F071F49EF58FC10EF4E0950B2EBA2FE8
:103FF000A02D0B01B90190010C01CA01A0011124EF
:10400000FF27591B99F0593F50F4503E68F11A169A
:10401000F040A22F232F342F4427585FF3CF46952B
:1040200037952795A795F0405395C9F77EF41F164D
:10403000BA0B620B730B840BBAF09150A1F0FF0F17
:10404000BB1F661F771F881FC2F70EC0BA0F621F03
:10405000731F841F48F4879577956795B795F795F3
:104060009E3F08F0B3CF9395880F08F09927EE0F85
:10407000979587950895D9D008F481E008950CD0DC
:104080000FC107D140F0FED030F021F45F3F19F0AE
:10409000F0C0511139C1F3C014D198F39923C9F379
:1040A0005523B1F3951B550BBB27AA27621773073E
:1040B000840738F09F5F5F4F220F331F441FAA1FF2
:1040C000A9F333D00E2E3AF0E0E830D091505040B2
:1040D000E695001CCAF729D0FE2F27D0660F771F60
:1040E000881FBB1F261737074807AB07B0E809F042
:1040F000BB0B802DBF01FF2793585F4F2AF09E3FD7
:10410000510568F0B6C000C15F3FECF3983EDCF3A8
:10411000869577956795B795F7959F5FC9F7880F4F
:10412000911D9695879597F90895E1E0660F771FA1
:10413000881FBB1F621773078407BA0720F0621B32
:10414000730B840BBA0BEE1F88F7E095089504D02B
:104150006894B111D9C00895BCD088F09F5790F0F1
:10416000B92F9927B751A0F0D1F0660F771F881F9C
:10417000991F1AF0BA95C9F712C0B13081F0C3D0B7
:10418000B1E00895C0C0672F782F8827B85F39F055
:10419000B93FCCF3869577956795B395D9F73EF4FB
:1041A00090958095709561957F4F8F4F9F4F0895A3
:1041B000E89409C097FB3EF49095809570956195C1
:1041C0007F4F8F4F9F4F9923A9F0F92F96E9BB2777
:1041D0009395F695879577956795B795F111F8CFF3
:1041E000FAF4BB0F11F460FF1BC06F5F7F4F8F4F5E
:1041F0009F4F16C0882311F096E911C0772321F054
:104200009EE8872F762F05C0662371F096E8862FEB
:1042100070E060E02AF09A95660F771F881FDAF742
:10422000880F9695879597F90895990F0008550F6F
:10423000AA0BE0E8FEEF16161706E807F907C0F02C
:1042400012161306E407F50798F0621B730B840B34
:10425000950B39F40A2661F0232B242B252B21F40E
:1042600008950A2609F4A140A6958FEF811D811DAE
:10427000089597F99F6780E870E060E008959FEFE8
:1042800080EC089500240A941616170618060906ED
:10429000089500240A9412161306140605060895BC
:1042A000092E0394000C11F4882352F0BB0F40F444
:1042B000BF2B11F460FF04C06F5F7F4F8F4F9F4F84
:1042C000089557FD9058440F551F59F05F3F71F006
:1042D0004795880F97FB991F61F09F3F79F087956D
:1042E0000895121613061406551FF2CF4695F1DFF6
:1042F00008C0161617061806991FF1CF8695710586
:10430000610508940895E894BB2766277727CB01B9
:1043100097F908958ADF08F48FEF08950BD0C0CF86
:10432000B1DF28F0B6DF18F0952309F0A2CFA7CFB0
:104330001124EACFC6DFA0F3959FD1F3950F50E08B
:10434000551F629FF001729FBB27F00DB11D639F47
:10435000AA27F00DB11DAA1F649F6627B00DA11DED
:10436000661F829F2227B00DA11D621F739FB00D93
:10437000A11D621F839FA00D611D221F749F332703
:10438000A00D611D231F849F600D211D822F762F9C
:104390006A2F11249F5750408AF0E1F088234AF099
:1043A000EE0FFF1FBB1F661F771F881F91505040E5
:1043B000A9F79E3F510570F05CCFA6CF5F3FECF3AD
:1043C000983EDCF3869577956795B795F795E795D1
:1043D0009F5FC1F7FE2B880F911D9695879597F9E2
:1043E000089597FB072E16F4009406D077FD08D0A9
:1043F0007ED007FC05D03EF4909581959F4F08959F
:10440000709561957F4F0895A1E21A2EAA1BBB1BE0
:10441000FD010DC0AA1FBB1FEE1FFF1FA217B30790
:10442000E407F50720F0A21BB30BE40BF50B661FA6
:10443000771F881F991F1A9469F76095709580956A
:1044400090959B01AC01BD01CF010895052E97FB0E
:1044500016F400940FD057FD05D0D6DF07FC02D02C
:1044600046F408C050954095309521953F4F4F4FE9
:104470005F4F089590958095709561957F4F8F4F10
:104480009F4F0895EE0FFF1F0590F491E02D1994B2
:1044900005D0332312F48A1B9B0B10C0A29FB001DE
:1044A000B39FC001A39F700D811D1124911DB29F68
:1044B000700D811D1124911D0895F0DFB7FF08953F
:1044C000821B930B0895EADFA59F900DB49F900D7A
:1044D000A49F800D911D11240895B7FFF4CFF3DF41
:1044E000821B930B08950790F691E02D1994AA1B57
:1044F000BB1B51E107C0AA1FBB1FA617B70710F0CF
:10450000A61BB70B881F991F5A95A9F78095909500
:10451000BC01CD0108958F929F92AF92BF92CF922E
:10452000DF92EF92FF92CF93DF93EC016881798164
:104530008A819B81611571058105910521F464E2F1
:1045400079ED8BE597E02DE133EF41E050E07EDF40
:1045500049015A019B01AC01A7EAB1E4B4DF6B0148
:104560007C01ACEEB4EFA5019401B9DFC60ED71EF5
:10457000E81EF91EF7FE06C081E0C81AD108E1085E
:1045800080E8F80AC882D982EA82FB82C701B601B4
:104590009F77DF91CF91FF90EF90DF90CF90BF900A
:1045A000AF909F908F900895B6CF86E092E0B3CF02
:1045B00060930602709307028093080290930902A9
:1045C00008950F931F93CF93DF93CDB7DEB72E9748
:1045D0000FB6F894DEBF0FBECDBF0E891F8986E0EF
:1045E0008C831A8309838FEF9FE79E838D83AE01AF
:1045F000465E5F4F688D798DCE01019610D0EF81B8
:10460000F885E00FF11F10822E960FB6F894DEBFEA
:104610000FBECDBFDF91CF911F910F9108952F92C3
:104620003F924F925F926F927F928F929F92AF9242
:10463000BF92CF92DF92EF92FF920F931F93CF938F
:10464000DF93CDB7DEB72C970FB6F894DEBF0FBE61
:10465000CDBF7C016B018A01FC0117821682838128
:1046600081FFB0C1CE0101964C01F7019381F601A3
:1046700093FD859193FF81916F01882309F49EC179
:10468000853239F493FD859193FF81916F018532D5
:1046900021F4B70190E0DDD1E8CF512C312C20E09E
:1046A0002032A0F48B3269F030F4803259F083323A
:1046B00069F420612CC08D3239F0803339F42160E7
:1046C00026C02260246023C0286021C027FD27C0A7
:1046D00030ED380F3A3078F426FF06C0FAE05F9EDE
:1046E000300D1124532E13C08AE0389E300D112452
:1046F000332E20620CC08E3221F426FD5FC120646F
:1047000006C08C3611F4206802C0883641F4F601E8
:1047100093FD859193FF81916F018111C1CF982FF6
:104720009F7D9554933028F40C5F1F4FFFE3F9836E
:104730000DC0833631F0833771F0833509F057C0EF
:1047400021C0F801808189830E5F1F4F4424439468
:10475000512C540114C03801F2E06F0E711CF801A5
:10476000A080B18026FF03C0652D70E002C06FEF0E
:104770007FEFC5012C8762D12C0183012C852F7717
:10478000222E16C03801F2E06F0E711CF801A080D5
:10479000B18026FF03C0652D70E002C06FEF7FEF90
:1047A000C5012C8740D12C012C852068222E830145
:1047B00023FC19C0832D90E048165906A0F4B701D8
:1047C00080E290E046D13A94F5CFF50127FC85913F
:1047D00027FE81915F01B70190E03BD131103A94FF
:1047E000F1E04F1A51084114510479F7DEC08436C4
:1047F00011F0893631F5F80127FF07C0608171811A
:10480000828193810C5F1F4F08C06081718188276E
:1048100077FD8095982F0E5F1F4F2F76B22E97FF52
:1048200009C090958095709561957F4F8F4F9F4FF0
:104830002068B22E2AE030E0A4013DD1A82EA818AD
:1048400043C0853729F42F7EB22E2AE030E025C000
:10485000F22FF97FBF2E8F36C1F018F4883579F02A
:10486000ADC0803719F0883721F0A8C02F2F206104
:10487000B22EB4FE0DC08B2D8460B82E09C024FF6B
:104880000AC09F2F9660B92E06C028E030E005C010
:1048900020E130E002C020E132E0F801B7FE07C0BD
:1048A00060817181828193810C5F1F4F06C060819E
:1048B000718180E090E00E5F1F4FA401FCD0A82E14
:1048C000A818FB2DFF77BF2EB6FE0BC02B2D2E7F19
:1048D000A51450F4B4FE0AC0B2FC08C02B2D2E7EE5
:1048E00005C07A2C2B2D03C07A2C01C0752C24FF17
:1048F0000DC0FE01EA0DF11D8081803311F4297E87
:1049000009C022FF06C07394739404C0822F867876
:1049100009F0739423FD12C020FF06C05A2C7314B3
:1049200018F4530C5718732C731460F4B70180E219
:1049300090E02C878ED073942C85F6CF731410F4EE
:10494000371801C0312C24FF11C0B70180E390E07B
:104950002C877FD02C8522FF16C021FF03C088E55D
:1049600090E002C088E790E0B7010CC0822F867803
:1049700051F021FD02C080E201C08BE227FD8DE2F3
:10498000B70190E066D0A51430F4B70180E390E061
:1049900060D05A94F8CFAA94F401EA0DF11D8081F9
:1049A000B70190E056D0A110F6CF332009F45DCEC8
:1049B000B70180E290E04DD03A94F7CFF7018681BD
:1049C000978102C08FEF9FEF2C960FB6F894DEBF51
:1049D0000FBECDBFDF91CF911F910F91FF90EF9050
:1049E000DF90CF90BF90AF909F908F907F906F900F
:1049F0005F904F903F902F900895F999FECF92BD10
:104A000081BDF89A992780B50895262FF999FECF90
:104A10001FBA92BD81BD20BD0FB6F894FA9AF99ADB
:104A20000FBE01960895FC01059061507040011081
:104A3000D8F7809590958E0F9F1F0895FC016150C7
:104A4000704001900110D8F7809590958E0F9F1FB0
:104A500008950F931F93CF93DF93182F092FEB0126
:104A60008B8181FD03C08FEF9FEF20C082FF10C0BC
:104A70004E815F812C813D81421753077CF4E88190
:104A8000F9819F012F5F3F4F39832883108306C030
:104A9000E885F985812F1995892B29F72E813F818A
:104AA0002F5F3F4F3F832E83812F902FDF91CF9138
:104AB0001F910F910895FA01AA27283051F1203152
:104AC00081F1E8946F936E7F6E5F7F4F8F4F9F4FA2
:104AD000AF4FB1E03ED0B4E03CD0670F781F891FE4
:104AE0009A1FA11D680F791F8A1F911DA11D6A0FB2
:104AF000711D811D911DA11D20D009F468943F9165
:104B00002AE0269F11243019305D3193DEF6CF0163
:104B10000895462F4770405D4193B3E00FD0C9F729
:104B2000F6CF462F4F70405D4A3318F0495D31FD96
:104B30004052419302D0A9F7EACFB4E0A6959795E9
:104B4000879577956795BA95C9F7009761057105BF
:104B500008959B01AC010A2E069457954795379509
:104B60002795BA95C9F7620F731F841F951FA01D63
:064B70000895F894FFCF48
:104B76000000C3058000010000000C05AE03B2036F
:104B8600B603BA03BE03C203C603FFFFFFFFFF005F
:104B960000F041000040C1012C0056382E392E315C
:104BA60000257320253032643A25303264202825CA
:104BB600642C256429200053657474696E67206629
:104BC6006F72200A6F7574563D25645620006F7506
:104BD60074433A2025644120002575202575004838
:104BE6006F75723A20253032642020004D696E754B
:104BF60074653A20253032642020005765656B6461
:104C060061793A0A737461727420636861726765C8
:104C16000A0A20253032643A303020005765656B29
:104C26006461793A0A656E64206368617267650A31
:104C36000A20253032643A303020005765656B45CE
:104C46004E440A7374617274206368617267650A00
:104C56000A20253032643A303020005765656B45AE
:104C66004E440A656E64206368617267650A0A20AD
:104C7600253032643A30302000506F7765723A2022
:104C860025642E25303164204B5720200054696D51
:104C9600653A202564206D696E20200025642E2546
:104CA600303164204B574820282425642E25303285
:104CB600642920002564562C20256441202825647B
:104CC60029200025642C25642C25642C25642C259C
:104CD60064004C6966653A202564204B57480053AA
:104CE600617665643A20256424004C6173743A2029
:104CF60025642E25303164204B5748005365743A9D
:104D0600202564562C202564412020202000576150
:104D16006974202564206D696E20202020004D6F67
:104D26006E005475650057656400546875004672D8
:104D360069005361740053756E0000000000ED1C9D
:0A4D4600691E421C5B1C4D1CCC1CB6
:00000001FF
